:100000000C94E0050C9427060C9427060C94270604
:100010000C9427060C9427060C9427060C942706AC
:100020000C9427060C9427060C949B280C946D299D
:100030000C94801A0C9427060C9427060C9427061F
:100040000C9427060C9427060C9427060C9427067C
:100050000C9427060C94D91A0C9427060C942706A6
:100060000C9427060C9427060C9427060C9427065C
:100070000C9427060C9427060C9427060C9427064C
:100080000C9427060C9427060C9427060C9427063C
:100090000C9427060C9427060C9427060C9427062C
:1000A0000C9427060C9427060C942706B510B5105F
:1000B000E710E710341152119D129D1294112D1268
:1000C0003E123E123D133D134F134F1346134F1371
:1000D0004F134F133D133D134B134F134F134B133C
:1000E000DA29012AF92A012AF92A4D2A702AF92A3D
:1000F000C72AD62A1E001F0020002100220023004C
:1001000024002500260044454255473A206469737F
:1001100061626C65642E0A0044454255473A206589
:100120006E61626C65642E0A000A00253038620038
:100130003A200025303258000A722F6320303132C5
:1001400033343536370A000A002530325820006B28
:100150006579626F6172645F7265706F72743A2064
:10016000000A0025303258006B6579626F61726455
:100170005F7365745F6C65643A2000290A00257519
:10018000002F002575005D280025640020002564EF
:1001900000200025640020002564007C002530320A
:1001A00058006D6F7573656B6579205B62746E7C4A
:1001B000782079207620685D287265702F61636CE5
:1001C000293A205B006D6B5F776865656C5F7469C9
:1001D0006D655F746F5F6D6178203D2025640A0056
:1001E0006D6B5F776865656C5F6D61785F73706577
:1001F0006564203D2025640A006D6B5F74696D6540
:100200005F746F5F6D6178203D2025640A006D6B1F
:100210005F6D61785F7370656564203D2025640AB9
:10022000006D6B5F696E74657276616C203D202590
:10023000640A006D6B5F64656C6179203D20256404
:100240000A006D6B5F776865656C5F74696D655FEB
:10025000746F5F6D6178203D2025640A006D6B5FCF
:10026000776865656C5F6D61785F73706565642044
:100270003D2025640A006D6B5F74696D655F746F66
:100280005F6D6178203D2025640A006D6B5F6D61B4
:10029000785F7370656564203D2025640A006D6B8E
:1002A0005F696E74657276616C203D2025640A007A
:1002B0006D6B5F64656C6179203D2025640A000ADE
:1002C00000257500363A20776865656C5F74696D46
:1002D000655F746F5F6D61783A20000A00257500D4
:1002E000353A20776865656C5F6D61785F7370651E
:1002F00065643A20000A00257500343A2074696D5F
:10030000655F746F5F6D61783A20000A00257500A3
:10031000333A206D61785F73706565643A20000A36
:1003200000257500323A20696E74657276616C281A
:100330006D73293A20000A00257500313A20646562
:100340006C6179282A31306D73293A20000A092D11
:100350002056616C756573202D0A004D3E004D25B9
:10036000643E20003F007365742064656661756CAF
:10037000740A00433E200077686572652064656CEE
:1003800074613A20637572736F723D25642C207717
:100390006865656C3D25640A5365652068747470F2
:1003A0003A2F2F656E2E77696B6970656469612ECF
:1003B0006F72672F77696B692F4D6F7573655F6B10
:1003C0006579730A000A092D204D6F7573656B6599
:1003D00079202D0A4553432F713A09717569740AC2
:1003E000313A0964656C6179282A31306D73290AC4
:1003F000323A09696E74657276616C286D73290AE8
:10040000333A096D61785F73706565640A343A093F
:1004100074696D655F746F5F6D61780A353A09774D
:100420006865656C5F6D61785F73706565640A36D9
:100430003A09776865656C5F74696D655F746F5FB5
:100440006D61780A0A703A097072696E742076617B
:100450006C7565730A643A09736574206465666136
:10046000756C74730A75703A092B310A646F776E74
:100470003A092D310A706775703A092B31300A70CC
:1004800067646F776E3A092D31300A0A73706565BB
:1004900064203D2064656C7461202A206D61785F62
:1004A0007370656564202A20287265706561742008
:1004B0002F2074696D655F746F5F6D6178290A0024
:1004C0003F004D3E2000433E20004C25640A00744E
:1004D000696D65725F72656164333228293A20253F
:1004E00030346C580A006B6579626F6172645F69C1
:1004F000646C653A2025580A006B6579626F6172F9
:10050000645F70726F746F636F6C3A2025580A00D5
:10051000686F73745F6B6579626F6172645F6C653D
:10052000647328293A2025580A000A092D2053749B
:1005300061747573202D0A004743433A20352E34E9
:100540002E30204156522D4C4942433A20322E3013
:100550002E30204156525F415243483A2061767214
:10056000350A004F5054494F4E533A204C5546419E
:10057000204D4F5553454B45592045585452414BFA
:10058000455920434F4E534F4C4520434F4D4D410D
:100590004E4420343039360A004255494C443A2002
:1005A00022302E392E32312D34392D676434646374
:1005B000326122202831343A32383A3038204A75B4
:1005C0006C2020322032303230290A005649443A19
:1005D000203078464545442829205049443A203067
:1005E0007830303030284661726577656C6C204D0C
:1005F0006163726F70616429205645523A203078E9
:10060000303030310A00444553433A204661726528
:1006100077656C6C204D6163726F7061640A000ACB
:10062000092D2056657273696F6E202D0A000A0924
:100630002D20436F6E736F6C65202D0A4553432F39
:10064000713A09717569740A6D3A096D6F75736550
:100650006B65790A000A092D204D61676963202DB9
:100660000A443A094465627567204D657373616792
:100670006520546F67676C650A583A094D6174725A
:100680006978204465627567204D6F646520546FFA
:1006900067676C65202D2053686F77206B657970D4
:1006A00072657373657320696E206D617472697809
:1006B00020677269640A4B3A094B6579626F61720F
:1006C0006420446562756720546F67676C65202DF0
:1006D0002053686F77206B65797072657373207231
:1006E00065706F72740A4D3A094465627567204DF2
:1006F0006F75736520546F67676C650A563A0956C3
:10070000657273696F6E0A533A0953746174757335
:100710000A433A09416374697661746520436F6ED8
:10072000736F6C65204D6F64650A46312D4631301C
:100730003A0953776974636820746F204C61796556
:100740007220302D392028463130203D204C302970
:100750000A302D393A0953776974636820746F2021
:100760004C6179657220302D390A47524156453A1D
:100770000953776974636820746F204C61796572DE
:1007800020302028616C7465726E617465290A429C
:100790003A094A756D7020746F20426F6F746C6FE8
:1007A000616465720A4553433A094A756D70207455
:1007B0006F20426F6F746C6F616465722028616C8A
:1007C0007465726E617465290A453A095072696EE2
:1007D0007420454550524F4D2053657474696E67BF
:1007E000730A4253504143453A09436C6561722094
:1007F000454550524F4D0A000A002575002E6E6B7C
:10080000726F3A20000A002575002E737761705FC1
:100810006261636B736C6173685F6261636B737059
:100820006163653A20000A002575002E73776170B8
:100830005F67726176655F6573633A20000A002521
:1008400075002E6E6F5F6775693A20000A00257586
:10085000002E737761705F72616C745F7267756987
:100860003A20000A002575002E737761705F6C6175
:100870006C745F6C6775693A20000A002575002E5C
:10088000737761705F7263746C5F726775693A2029
:10089000000A002575002E737761705F6C63746CBD
:1008A0005F6C6775693A20000A002575002E636148
:1008B00070736C6F636B5F746F5F636F6E74726F76
:1008C0006C3A20000A002575002E737761705F6313
:1008D0006F6E74726F6C5F636170736C6F636B3A91
:1008E00020000A0025303258006B65796D61705F19
:1008F000636F6E6669672E7261773A20000A002581
:1009000075002E6D6F7573653A20000A002575001D
:100910002E6B6579626F6172643A20000A0025755A
:10092000002E6D61747269783A20000A0025750006
:100930002E656E61626C653A20000A0025303258DF
:100940000064656275675F636F6E6669672E7261CA
:10095000773A20000A0025750064656661756C743D
:100960005F6C617965723A20003F000A6D6F7573A4
:10097000653A206F66660A000A6D6F7573653A20E6
:100980006F6E0A000A6B6579626F6172643A206F5C
:1009900066660A000A6B6579626F6172643A206F5D
:1009A0006E0A000A6D61747269783A206F66660A91
:1009B000000A6D61747269783A206F6E0A000A64E9
:1009C000656275673A206F66660A000A646562753B
:1009D000673A206F6E0A000A0A4A756D70696E6781
:1009E00020746F20626F6F746C6F616465722E2E5D
:1009F0002E2000433E2000436C656172696E6720C3
:100A0000454550524F4D0A006565636F6E666967D4
:100A10003A0A005B735D004B6579626F6172642016
:100A200073746172742E0A005B575D005B535D0046
:100A30005B525D005B445D005B435D00040330007E
:100A40000000240346006100720065007700650025
:100A50006C006C0020004D006100630072006F00AC
:100A60007000610064000000020300000403090438
:100A700009025B00030100A0FA0904000001030160
:100A8000010009211101000122400007058103082E
:100A9000000A0904010001030000000921110100FE
:100AA000012281000705820320000A0904020002D6
:100AB0000300000009211101000122220007058323
:100AC00003200001070503032000011201100100AB
:100AD000000008EDFE00000100010203010631FFE5
:100AE0000974A1010975150026FF0095207508817C
:100AF000020976150026FF00952075089102C005B1
:100B0000010902A10185020901A1000509190129B4
:100B10000515002501950575018102950175038173
:100B2000010501093009311581257F95027508817C
:100B30000609381581257F950175088106050C0A7F
:100B400038021581257F950175088106C0C0050111
:100B50000980A101850319012AB700150126B700F4
:100B6000950175108100C0050C0901A101850419CA
:100B7000012AA002150126A002950175108100C06E
:100B800005010906A101050719E029E7150025015E
:100B90009508750181029501750881010507190005
:100BA00029FF150026FF0095067508810005081924
:100BB000012905950575019102950175039101C003
:100BC00011241FBECFEFDAE0DEBFCDBF04B603FEB7
:100BD00027C08091560290915702A0915802B0917F
:100BE00059028730904BA740B04BD1F41092560277
:100BF00010925702109258021092590214BE84B7F4
:100C0000877F84BF0FB6F894A895809160008861B3
:100C100080936000109260000FBEE0E0F8E3099559
:100C200011E0A0E0B1E0E4E5F7E502C005900D9227
:100C3000AA3AB107D9F722E0AAEAB1E001C01D92B1
:100C4000A635B207E1F70E94C1250C94A82B0C949D
:100C50000000FF93EF93E091AA01F091AB01309770
:100C600009F00995EF91FF910895FC01859180307D
:100C700011F0EFDFFBCF0895FF27E0E230E247FFFE
:100C80000CC0419597FF09C0EDE260957095809585
:100C90009095611D711D811D911D27FF02C0219539
:100CA00030E350E2AA27660F771F881F991FAA1FFB
:100CB000A41710F0A41B63955A95A9F7AA3008F061
:100CC000A95FA05DAF93F39561157105810591054D
:100CD00041F7ED3211F4EF93F395F21718F43F93C7
:100CE000F395FBCF8F91B5DFFA95E1F70895E99180
:100CF000F9918591803021F0853219F0AADFF9CF82
:100D0000089520E0E89455915532C1F3503311F421
:100D1000689455915A3348F4505390F3220F022EA1
:100D2000220F220F200D250FF4CF0EF4219589916B
:100D30009991533619F3533729F1533559F1BC01C1
:100D400088279927E8945C3621F4899199916894D1
:100D50005591543639F446EF7EF077FF0DC08FEF92
:100D60009FEF0AC055374AE039F0583540E121F08D
:100D7000523642E009F00895FF93EF937DDFEF9143
:100D8000FF91B7CFFF93EF93FC0181918030B9F3CE
:100D900060DFFBCFFF93EF9368DFF1CFDF93CF935B
:100DA000CDB7DEB72596A3DFCF91DF9108958111EE
:100DB00006C0662311F089EA09C08AEA07C08130BB
:100DC00039F4662311F089EF01C08AEF0C945A10B0
:100DD000089581E0089581E008950C94EB0608954C
:100DE0000C94EF061F93CF93DF9300D000D01F9297
:100DF000CDB7DEB749835A836B833091C3018981B4
:100E00009A81311114C0662359F0222349F00E94BF
:100E1000F917182F682F89819A810E94A21703C0A1
:100E20000E94CD17182F69817A81812F04C00E94FA
:100E3000F91769817A810F900F900F900F900F90A2
:100E4000DF91CF911F910C94BB07FC01262F4081AD
:100E500051816281738184810C94F206CF93DF9378
:100E6000EC0160E00E942507BE01DF91CF910C9458
:100E7000F0060E943519811102C00E94D5190C9408
:100E8000010A0C94FD0908950C94430781E008952C
:100E90000C944607CF93C82F0E9444078C2F0E94C2
:100EA0004807CF91089508950E942B130E9453077D
:100EB0002FEF84E39CE0215080409040E1F700C098
:100EC00000000C94FF1A0F931F93CF93DF93EC0154
:100ED00061E00E9425078C01BE010E94ED06882377
:100EE00009F442C0BE01C8010E94800C8823E1F1D0
:100EF000BE01C8010E94C10C8823B1F1BE01C80126
:100F00000E94EC0D882381F18A81882331F1013020
:100F10008CE5180751F00E3D8CE51807D9F0011546
:100F20001C45D9F40E9454071FC080911B02C82F92
:100F3000C095C170C0FB80F980931B02CC2329F0BF
:100F400088E191E00E9435060FC086E091E00E94A2
:100F500035060BC00E94D51907C0CE01DF91CF9195
:100F60001F910F910C94E906C0E08C2FDF91CF9177
:100F70001F910F910895272F30E0F901EE0FFF1F09
:100F80002E0F3F1FF90199E0899FE00DF11D1124FB
:100F9000E60FF11DEE0FFF1FEC50FF4F859194916E
:100FA0000895CF93DF930E94BB070E94D308EC0102
:100FB000811521E5920708F043C0811540E59407AB
:100FC00008F08AC0883E910520F5803E910508F022
:100FD000E6C0883A910570F4853A910508F074C02E
:100FE0008130910509F4DBC008F4D7C0049708F0FC
:100FF000D6C0D3C08F3B910508F0CFC0C85AD0E00F
:10100000CC0FDD1FCB5EDE4F0990D881C02DD4649C
:10101000C6C0C11580E2D80758F4C11521E0D20737
:1010200008F0BDC0C03FD10508F4B7C0D065B7C057
:10103000C11540E4D40708F4B0C0DF70D06AAFC077
:10104000C11585E5D807A0F4C11524E5D20708F03D
:101050008AC0C11543E5D40708F06FC0C11582E509
:10106000D80708F054C0DC2FCC27C16FD06A97C0D6
:10107000C11529E5D207A0F4C11548E5D40708F049
:1010800077C0C11586E5D80708F087C08C2F0E946D
:1010900067098F71C82FD0E0DC2FCC27D0627FC0CA
:1010A000C1152AE5D20708F468C0CE019056811513
:1010B000904208F072C08D2F8F710E946709DD2762
:1010C000D0628F71D82B6BC0C55AD0E0CD5BDE4F9C
:1010D000C881D0E0D06463C074E0969587957A9516
:1010E000E1F783709C2F937021E030E002C0220F63
:1010F000331F9A95E2F73C68382BCF70C695C6959A
:1011000080E2C89FE0011124C22BD32B48C0CE013E
:101110008370992721E030E002C0220F331F8A95A7
:10112000E2F78C2F8695869540E2849FC0011124BA
:10113000E901C82BD92BDC6832C0CE018370992716
:1011400021E030E002C0220F331F8A95E2F78C2F96
:101150008695869540E2849FC0011124E901C82B41
:10116000D92BDA681CC0DC2FCC27C46FD06A17C01B
:10117000DC2FCC27C06FD06A12C08C2F8F700E94DA
:10118000670994E0D695C7959A95E1F7CF70D0E0BE
:10119000DC2FCC27D069C82B02C0C0E0D0E0CE0144
:1011A000DF91CF9108958238910569F1B0F48133D0
:1011B000910509F46DC048F48932910509F463C0C2
:1011C0008A32910509F469C008958533910509F4BF
:1011D00055C089339105B9F00895833E910569F1B1
:1011E00038F4803E9105B1F0823E910509F10895F1
:1011F000863E9105A9F1873E9105B9F1843E91059E
:1012000009F064C023C02091470220FD4FC021FD9A
:101210004DC008958091470280FD44C080914802EE
:1012200080FF44C08091470284FD42C083EE4DC0E0
:101230008091470282FF38C0F5CF8091470282FD3E
:1012400033C08091480280FD31C0ECCF80914802CC
:1012500081FF32C08091470284FD2AC087EE35C0ED
:101260008091470283FF26C0F5CF8091470283FD1E
:1012700021C08091480281FD1FC0ECCF80914702C0
:1012800085FD1CC01DC08091470285FD19C016C098
:101290008091470286FD16C017C08091470286FDE7
:1012A00013C010C089E311C082EE0FC080EE0DC0E4
:1012B00080E00BC086EE09C084EE07C089E205C05D
:1012C00085E303C08AE201C081E390E00895909134
:1012D000470292FF0DC0282F2871283019F4877F0C
:1012E000846006C0282F2471243011F48B7F88601D
:1012F00093FF0DC0282F2871283119F4877E84614F
:1013000006C0282F2471243111F48B7E886120912E
:10131000480220FF0DC0382F3871383019F4877F0C
:10132000816006C0382F3171313011F48E7F8860B2
:1013300021FF0DC0282F2871283119F4877E816183
:1013400006C0282F2171213111F48E7E886194FD11
:10135000877E0895E82FF0E0E25CFD4F80810895DC
:10136000CF92DF92EF92FF920F931F93CF93DF9371
:1013700088E391E00E9435068EE3E82E82E0F82EA5
:10138000C0E0D0E093E3C92E91E0D92E0BE211E04A
:10139000DF93CF93DF92CF920E94CE0680E391E05D
:1013A0000E943506F70181917F010E9423191F9247
:1013B0008F931F930F930E94CE0689E291E00E94C3
:1013C000350621968DB79EB708960FB6F8949EBF46
:1013D0000FBE8DBFC330D105D9F6DF91CF911F91DC
:1013E0000F91FF90EF90DF90CF90089580EA8A955B
:1013F000F1F7089508950C94FA090C94FB090C94E4
:10140000FA090C94FF09CF93DF93A9E4B1E04CE40F
:1014100051E061E070E08D91E82FE295EF70F0E02F
:1014200021A18F70EB0102C0CC0FDD1F8A95E2F77E
:10143000CE019C2F9095922391A392A1892B82A3F8
:101440004A175B0741F7A6E4B1E049E451E061E0E7
:1014500070E08D91E82FE295EF70F0E021A18F70A0
:10146000EB0102C0CC0FDD1F8A95E2F7CE019C2F65
:101470009095922391A392A1892B82A34A175B078F
:1014800041F710923B0210923E0210923C021092E1
:101490003F0210923D021092400283E00E94DA0A5D
:1014A000DF91CF910C9439076F927F928F929F9228
:1014B000AF92BF92CF92DF92EF92FF920F931F9362
:1014C000CF93DF9389E4882E81E0982E0BE312E01E
:1014D0009EE3A92E92E0B92E712CCC24C394D12C7A
:1014E000F40181914F01C82FC295CF70D0E099A12E
:1014F0008F70760101C0EE0C8A95EAF7892F8E294C
:1015000089A38AA16E2C609486218AA30E94F60981
:10151000E6E4F1E040E050E020E03191A32FA29515
:10152000AF70B0E090968C9190E03F7002C09595BE
:1015300087953A95E2F780FD07C08C2D042E01C0F7
:10154000880F0A94EAF701C080E0282B4F5F5F4FB5
:101550004330510511F789A1682269A28AA1E82ABE
:10156000EAA2F8018081281719F0208381E001C0E8
:1015700080E0782A0F5F1F4FA016B10609F0B0CFA8
:10158000272D43E06EE372E08BE392E00E94DB0ADA
:101590000E944107872DDF91CF911F910F91FF90FE
:1015A000EF90DF90CF90BF90AF909F908F907F9003
:1015B0006F9008950895FF920F931F93CF93DF9339
:1015C0008C01F62ED72FC42F222349F081E080937F
:1015D000AE010E94B21A9093AD018093AC0180914C
:1015E000AE018823C1F08091AC019091AD010E94C1
:1015F000CA1A069780F0EF2DFD2FD8014C2F50E02E
:10160000CD01801B910B841795071CF48D9181935C
:10161000F7CF1092AE01DF91CF911F910F91FF9004
:1016200008950C94D706FF920F931F93CF93DF93E7
:10163000C3EBD1E04EE551E02CE531E061E070E034
:10164000F1E0C53BDF0709F44CC0FA010191AF019D
:10165000A02FA295AF70B0E09196EC9191970F708A
:10166000CB01002E01C0880F0A94EAF7982F9095BD
:101670009E2391969C93919792969C919297892BF9
:1016800092968C939297F90111919F01E12FE29527
:10169000EF70F0E0F1A01F70CB01012E01C0880FA8
:1016A0000A94EAF7982F90959F2191A392A1892BF4
:1016B00082A390968C9190E002C0959587950A95AB
:1016C000E2F78170E0A1F0E002C0F595E7951A9588
:1016D000E2F7E0FD02C090E001C092E0892B89931F
:1016E000AFCFDF91CF911F910F91FF9008955F923F
:1016F0006F927F928F929F92AF92BF92CF92DF9222
:10170000EF92FF920F931F93CF93DF9383EB682E9B
:1017100081E0782E9EE5E92E91E0F92E0CE511E0AE
:1017200021EB822E21E0922ECFEAD1E0630153011A
:10173000512CD501ED915D014E2F440F440FF60160
:1017400041936F01D7012D917D01E22FE295EF705A
:10175000F0E080A190E02F7002C0959587952A95C2
:10176000E2F781709927F80151918F01E52FE295F9
:10177000EF70F0E020A130E05F7002C03595279552
:101780005A95E2F7F901E170FF2720FF02C0E2E07D
:10179000F0E0E82BF92BE42BD301ED933D01EF7042
:1017A000F0E0E45BFE4F9081F4018081890F80833B
:1017B00084303CF088818F5F888360E0852D0E94B3
:1017C000110BD4018C918D3F3CF48881815088832A
:1017D00061E0852D0E94110BF4018081837887FFE1
:1017E00003C081508C6F8F5FD4018D934D01539452
:1017F0002196B2E05B129DCFDF91CF911F910F91A7
:10180000FF90EF90DF90CF90BF90AF909F908F9020
:101810007F906F905F9008950F931F93CF93DF9306
:10182000C62FD42F122FFC0182818823C9F0609328
:10183000B7010E94B21A9093B6018093B50180E27D
:101840008C0F883008F057C0C77081E001C0880F46
:10185000CA95EAF7DF91CF911F910F910C946D100B
:101860008091B701681330C08091B5019091B601A5
:101870000E94CA1A883C910538F500E20D0FCD1779
:10188000B9F080E28C0F883040F4C77081E001C06D
:10189000880FCA95EAF70E947410083028F581E095
:1018A0009D2F977001C0880F9A95EAF70E946D10DE
:1018B000812F0E945A100830F0F4D77081E001C0E7
:1018C000880FDA95EAF70AC080E28C0F883098F426
:1018D000C77081E001C0880FCA95EAF7DF91CF9108
:1018E0001F910F910C947410812FDF91CF911F9154
:1018F0000F910C945A10DF91CF911F910F91089581
:101900009C01CB01233F4CE53407F9F078F4283DE6
:10191000FCE53F07B9F0293D4CE5340711F1273DBF
:101920003C4531F526E241EE61EE1EC0253FFCE567
:101930003F0799F070F0263F3C45D1F427E245EE91
:1019400066EE12C027E245EE0EC026E241EE60EEE2
:101950000BC027E245EE64EE07C026E241EE62EEE0
:1019600003C028E241E065EE0E940C0C80E008957F
:10197000FC018281882319F01092B701089581E05B
:101980000895CF93DF93EC01FB018281882309F452
:101990001FC1C230FCE5DF0708F41BC1C6319CE55E
:1019A000D90738F09E012A5F3C452930310508F0FF
:1019B00010C10E9448199093480280934702C03199
:1019C000ECE5DE0709F4C3C008F041C0C8308CE57F
:1019D000D80709F49AC0F0F4C430ECE5DE0709F446
:1019E00087C068F4C2308CE5D80709F477C0C330EB
:1019F000DC4509F0E3C080914702826076C0C630C2
:101A0000ECE5DE0709F46EC008F07BC08091470268
:101A100088606BC0CC308CE5D80709F485C068F4C9
:101A2000CA30ECE5DE0709F474C008F079C00E9402
:101A30002B1380914702806858C0CE308CE5D807C0
:101A400009F476C008F07FC0809147028BC0CB3F7D
:101A5000ECE5DE0709F44FC018F5C3318CE5D80773
:101A600009F47DC078F4C131ECE5DE0709F473C0F8
:101A7000C231DC4509F0A2C00E942B1380914702BD
:101A80008F7733C0C5318CE5D80709F472C008F4EC
:101A900086C0CA3FDC4509F091C0809148023EC033
:101AA000CF3FFCE5DF0709F45FC058F4CD3F9CE56C
:101AB000D90709F444C008F43FC08091480282600D
:101AC0002DC0C130FDE5DF0709F475C008F45DC025
:101AD000C230DD4509F072C080E06EC080914702DF
:101AE000816003C08091470280618093470266C095
:101AF0008091470211C08091480282608093480221
:101B00005DC0809147028062F0CF8091470280647F
:101B1000ECCF8091470288608460E7CF8160EECF90
:101B2000809147028E7FE1CF809147028D7FDDCF8C
:101B300080914702877FD9CF8091480218C0809159
:101B400048028D7FDBCF809147028F7ECECF809180
:101B500047028F7DCACF809147028F7BC6CF80918D
:101B60004702877F8B7FC1CF809148028D7F8E7F18
:101B7000C5CF8091470282FB222720F991E092276E
:101B800090FB82F990FB83F9B0CF80914802982FA7
:101B9000909591708E7F892B90FB81F9AFCF0E9439
:101BA0002B138091470287FB222720F991E092278F
:101BB00090FB87F99ACF81E00E94D7198091470264
:101BC000909148020E9459190E942B1380E001C095
:101BD00081E0DF91CF910895CF93DF9386319C45CB
:101BE00041F5EB010E947A18982F8A81209100011B
:101BF00030910101882379F09A7A81E009F480E03C
:101C00008093B801911102C069E201C065E3C90186
:101C10000E941E1A0AC08091B801811102C069E2B7
:101C200001C065E3C9010E94201A0E94BB1880E030
:101C300001C081E0DF91CF9108959093BE01809320
:101C4000BD010895E091BD01F091BE01309721F0F2
:101C50000190F081E02D099480E00895EF92FF92C9
:101C60000F931F93CF93DF93E091BD01F091BE01DD
:101C70003097B1F18C010280F381E02D09958091BC
:101C80001B0282FF2DC080FF04C08FE491E00E9400
:101C90003506E80118E089E4E82E81E0F82E80910D
:101CA0001B0280FF0BC088811F928F93FF92EF92DF
:101CB0000E94CE060F900F900F900F90115021961A
:101CC0001111EDCF80911B0280FF0AC087E491E0E3
:101CD000DF91CF911F910F91FF90EF900C943506FB
:101CE000DF91CF911F910F91FF90EF900895E091B8
:101CF000BD01F091BE01309739F022E0DC012C9358
:101D00000480F581E02D099408952091BB01309164
:101D1000BC012817390771F09093BC018093BB0177
:101D2000E091BD01F091BE01309721F00680F7816E
:101D3000E02D099408952091B9013091BA01281736
:101D4000390771F09093BA018093B901E091BD0118
:101D5000F091BE01309721F00084F185E02D0994C7
:101D6000089585B7806885BF85B7806885BF089569
:101D700008950C94B80E0C94B90E0C94B80E0C94F3
:101D8000B80E0E94B10E0E94BD0E0C94BB0E81E0F5
:101D900008950C94C70E0E94A91A0E94030A0E947B
:101DA000101B0E94130B0C94BF0ECF93C82F809171
:101DB0001B0282FF1EC080FF04C088E691E00E94E3
:101DC000350680911B0280FF0CC01F92CF9383E6E3
:101DD00091E09F938F930E94CE060F900F900F90EB
:101DE0000F9080911B0280FF04C081E691E00E9469
:101DF00035068C2FCF910C944A07AF92BF92CF92A9
:101E0000DF92EF92FF920F931F93CF93DF93CDB7A3
:101E1000DEB72A970FB6F894DEBF0FBECDBF0E9483
:101E2000540A0E94C90E811111C08FEF89838A83E1
:101E30001B820E94B21A8160782F9D838C83498116
:101E40005A816B818D810E94970F40C080ECA82E33
:101E500081E0B82E00E010E0C02E802F0E94AA0979
:101E6000E82EF501D1905F01D82631F40F5F1F4FA6
:101E70000330110589F7D9CF80911B0281FD0E94A3
:101E8000B00980E0FF24F3949D2D9F21D1F08E8333
:101E9000CF82EF2081E009F480E088870E94B21AA7
:101EA0008160782F9A8789874E815F8168858A85CE
:101EB0000E94970FF801E054FE4F8081F826F082CF
:101EC00005C08F5FFF0C8330F9F6D0CF0E94770BEF
:101ED0000E94241D0E94220E9091BF018917B1F02B
:101EE0000E94220E8093BF012A960FB6F894DEBF9F
:101EF0000FBECDBFDF91CF911F910F91FF90EF905B
:101F0000DF90CF90BF90AF900C94D50E2A960FB66D
:101F1000F894DEBF0FBECDBFDF91CF911F910F911F
:101F2000FF90EF90DF90CF90BF90AF900895CF9348
:101F3000DF93CDB7DEB72B970FB6F894DEBF0FBE99
:101F4000CDBF4F83588769877A878B87DE011196CB
:101F500086E0FD0111928A95E9F785E0FE0137964A
:101F600001900D928A95E1F749815A816B817C81BC
:101F70008D819E810E94E4152B960FB6F894DEBFEA
:101F80000FBECDBFDF91CF910895FC01808191817B
:101F90000E943B180895CF93882309F455C0C82F99
:101FA0008CEF8C0F813AF8F48C2F0E94342281112F
:101FB0004BC06C2F80910001909101010E94E819A3
:101FC000882349F06C2F80910001909101010E94BB
:101FD000201A0E94BB186C2F809100019091010182
:101FE0000E941E1A0CC080E28C0F883058F4C77013
:101FF00081E001C0880FCA95EAF70E947D18CF9151
:102000000C94BB18EBE5EC0FE33040F4F0E0E25742
:10201000FE4F808190E0CF910C94850EE8E5EC0FA7
:10202000E73150F4F0E0EE0FFF1FE05AFE4F8081E1
:102030009181CF910C949B0EC03F30F08C2F0E9469
:10204000AA1BCF910C94971CCF910895882389F1F6
:102050009CEF980F913A40F4682F80910001909185
:1020600001010E94201A0DC090E2980F983058F498
:10207000877091E001C0990F8A95EAF7892F0E9435
:1020800083180C94BB189BE5980F933020F480E0E4
:1020900090E00C94850E98E5980F973120F480E03D
:1020A00090E00C949B0E803F20F00E94121C0C9438
:1020B000971C0895CF93C82F0E94CB0FC93349F4C2
:1020C0002FEF87EE93E0215080409040E1F700C071
:1020D00000008C2FCF910C942610882321F00E94B1
:1020E0007D180C94BB180895882321F00E94831852
:1020F0000C94BB180895CF92DF92EF92FF920F934A
:102100001F93CF93DF937C01D62FC72FFC0105814E
:1021100002950F70128111110E949A180E94731873
:10212000882399F0112389F08C2F807F803421F04F
:1021300080E28D0F883048F082E00E9405190E94ED
:10214000731891E0D82ED92601C0D12CCC2EC29480
:102150008FE0C8228C2D90E08C30910508F0EDC105
:10216000FC01EA5AFF4F0C944C2B8C2F807FCF70D0
:10217000882311F0C295C07F112399F0CC2309F474
:10218000C8C180E28D0F883010F0D11104C08C2FAF
:102190000E947D1803C08C2F0E948D180E94BB18CE
:1021A000B8C18D2F0E942610CC2309F4C6C180E24D
:1021B0008D0F883010F0D11104C08C2F0E9483182D
:1021C00003C08C2F0E9493180E94BB18B6C18C2F9D
:1021D000807FCF70803211F0C295C07FDD2319F06F
:1021E000D130C9F022C0112371F0002341F0013039
:1021F00031F40E94A0188C2B0E94A8189EC10E9446
:10220000A0188C2B1DC0002319F0013009F495C1D2
:102210000E94B11825C0112321F0063008F08DC1AD
:102220000EC0053008F089C11BC0112361F00023E6
:1022300031F0F701858180FF6CC18F7085838C2F11
:102240000E946D107AC1002359F0D93309F072C190
:10225000FFEF07EE13E0F15000401040E1F768C1D6
:102260008C2F0E94741069C18C2F8695869583707F
:1022700019F0813061F061C1112321F08D2F9C2F65
:10228000937002C080E090E00E94850E5EC1112331
:1022900021F08D2F9C2F937002C080E090E00E946F
:1022A0009B0E53C11123F9F0D53F51F0D63F71F089
:1022B000D43FA9F4809141029091420281600BC009
:1022C0008091410290914202826005C0809141025A
:1022D00090914202846090934202809341028D2F3C
:1022E0000E94AA1B1EC0D53F51F0D63F71F0D43FCB
:1022F000A9F480914102909142028E7F0BC080919F
:102300004102909142028D7F05C0809141029091DF
:1023100042028B7F90934202809341028D2F0E9454
:10232000121C0E94971C11C18C2F837009F047C0AA
:10233000111107C12D2F229526952770220F220FEC
:102340006D2F6F70862F90E0A0E0B0E0022E04C0E9
:10235000880F991FAA1FBB1F0A94D2F7D4FF10C081
:102360004FE050E060E070E004C0440F551F661F6E
:10237000771F2A95D2F7409550956095709503C0C8
:1023800040E050E0BA01C695C695C3708A019B0132
:10239000082B192B2A2B3B2BC901B801C23049F05D
:1023A00058F4C13019F00E94B816CBC00E94A6168E
:1023B000C8C00E94CA16C5C00E94A416C2C011237C
:1023C00019F08C2F817001C08695882309F4B9C05B
:1023D0002D2F229526952770220F220F6D2F6F70BB
:1023E000862F90E0A0E0B0E0022E04C0880F991F75
:1023F000AA1FBB1F0A94D2F7D4FF10C04FE050E0D1
:1024000060E070E004C0440F551F661F771F2A95D7
:10241000D2F7409550956095709503C040E050E02C
:10242000BA01C695C695C3708A019B01082B192B6A
:102430002A2B3B2BC901B801C23049F058F4C130F6
:1024400019F00E947D177DC00E946B177AC00E9410
:102450008F1777C00E94DE1674C0CF70112339F039
:102460008C2F0E9404178D2F0E946D106AC08D2F33
:102470000E9474108C2F0E94251763C0D23F01F177
:1024800028F4D03F41F0D13FA1F03FC0D33FF9F055
:10249000D43F39F13AC0112341F0053008F04DC066
:1024A0008C2F8F710E944A1748C0063008F045C033
:1024B000F7CF112339F08C2F8F710E9404173DC084
:1024C0001123C9F38C2F8F710E94251736C0112359
:1024D00029F08C2F8F710E94EF162FC00E94EA16F0
:1024E0002CC0112349F0CF718C2F0E94041763E098
:1024F0008C2F0E94F01821C081E00E940519023043
:10250000E0F082E00E94051918C0112331F0002389
:1025100091F28D2F0E94CB0F10C0002399F2D93376
:1025200049F41FEF27EE33E0115020403040E1F72F
:1025300000C000008D2F0E94261088EF8C0D843083
:1025400020F40E94220E0E944A07DD20C9F00E945A
:102550006F1880FD15C0F70112820E9469180E9451
:102560000417C7010E94E1120E946918DF91CF9100
:102570001F910F91FF90EF90DF90CF900C94251753
:10258000DF91CF911F910F91FF90EF90DF90CF904F
:1025900008950F931F93CF93DF93EC0168817981A6
:1025A0008A810E9446188C010E94A1170E949216EF
:1025B000B801CE010E947B10DF91CF911F910F9146
:1025C0000895CF93DF93EC01988189812B813C8121
:1025D000232B31F08F3F31F481E09F3F19F403C08A
:1025E00081E001C080E080FD19C0CE010E94630738
:1025F00081110CC00E947318882381F08A8188237E
:1026000069F082E0DF91CF910C940519CE010E9410
:10261000C912CE01DF91CF910C942E07DF91CF919B
:1026200008950E949A180E949D180E94BB180E944B
:10263000431E0E94971C80E090E00E94850E80E07F
:1026400090E00C949B0E80910001909101010E94FA
:10265000221A0C9411130E948A180C942313E92F48
:10266000E295EF704E2F50E0FA013297EE30F1050F
:10267000B0F4EE59FF4F0C944C2B803F91F018F4BE
:10268000883E68F40EC0843F51F40BC0883E48F089
:10269000813F29F406C093FB882780F9089580E0E4
:1026A000089581E008950E943B180E942F13089519
:1026B000CF93DF9300D000D01F92CDB7DEB70F903D
:1026C0000F900F900F900F90DF91CF910895CF93BF
:1026D000DF9300D000D000D0CDB7DEB726960FB67E
:1026E000F894DEBF0FBECDBFDF91CF9108951F9349
:1026F000CF93DF93C091C40116E08091C501C81744
:1027000099F0D0E01C9FF0011D9FF00D1124EA53B9
:10271000FE4F4081518162817381848195810E9445
:1027200067132196C770E9CFDF91CF911F9108956C
:102730004091F6015091F7016091F8017091F90113
:102740008091FA019091FB010C9467130F931F93F2
:10275000CF93DF938091FB0182958F7009F05DC06C
:102760008091F801882309F458C08091C401109128
:10277000C5016091F6017091F701C091F901D09106
:10278000FA0191E06F3F09F090E0292F06E08117F0
:1027900009F443C0209721F07F3F21F030E003C0CF
:1027A00031E001C0322F90E030FD34C0089FF001CD
:1027B000099FF00D1124DF01AA53BE4F11963C91E1
:1027C0001197371327C03C91361324C012963C91C1
:1027D000129731111FC013964D915C9114974C1BA9
:1027E0005D0B483C5105B0F48091FB018F70806116
:1027F0008093FB01E553FE4F80818F708061808361
:1028000086EF91E00E94E112DF91CF911F910F912D
:102810000C94771301968770BACFDF91CF911F91F7
:102820000F9108959F92AF92BF92CF92DF92EF9255
:10283000FF920F931F93CF93DF93CDB7DEB76197CE
:102840000FB6F894DEBF0FBECDBF8C0185E0F80156
:10285000DE011D9601900D928A95E1F7F801408105
:102860005181E2809091F6016091F7012091F90188
:102870003091FA012115310531F06F3F31F481E0DB
:102880009F3F19F403C081E001C080E0F82FF17090
:102890009F2E80FD46C1F801A380B48086EFC82E2C
:1028A00081E0D82EF090F801F501E21BF30BFF2038
:1028B00009F4DFC08091FB01E83CF10508F09BC002
:1028C000282F207F09F052C0561313C0491311C09E
:1028D000FE2CE1100EC08F7080618093FB010E947E
:1028E0009813C6010E94E1128091FB01F8018583D3
:1028F00058C1AB2831F05F3F31F481E04F3F19F40C
:1029000003C081E001C080E080FD03C081E08E252E
:1029100002C080E090E0F82FF170FF2E80FF1CC015
:102920008091C4012091C50136E0821709F417C1D6
:1029300090E0389FF001399FF00D1124EA53FE4FCB
:102940006181561306C06081461303C06281E6129E
:1029500003C001968770E9CFFE2CEE2009F421C157
:102960008091FB0181608093FB015AC0561306C021
:10297000491304C0E11002C0F8019FC04D875E8773
:102980008D859E850E945313882379F1EE2069F18D
:102990002091FB01822F82958F7090E0029774F056
:1029A0008091F6019091F70198878F831986BB86F5
:1029B000AA862C87CE0107960E94E11286E0F801D4
:1029C000A6EFB1E001900D928A95E1F70E94A6135F
:1029D0000E9498130DC0561729F14D875E878D858B
:1029E0009E850E94531381112CC0C8010E94E112E0
:1029F000FF24F394D6C0282F207F69F77A2DB98A57
:102A0000A88A6E2D89890E94581386EF91E00E9452
:102A1000E11286E0F60111928A95E9F70E94981377
:102A2000F12CBFC04913D9CFE110D7CFF80185836E
:102A3000C8010E94E11286E0F60111928A95E9F739
:102A4000B0C0EE2091F22091FB01822F82958F7011
:102A500090E002970CF4B2CF8091F6019091F701CB
:102A60009A8389831B82BD82AC822E83CE0101961C
:102A7000A3CFE83CF10508F047C0FE2CEE2009F496
:102A8000B4CF561330C049132EC02091FB0120FD56
:102A900021C0822F82958F70482F50E0411551053B
:102AA000C9F0F80125834F30510541F08F5F982F11
:102AB0009295907F822F8F70892B8583C8010E9409
:102AC000E11286E0F801A6EFB1E001900D928A953F
:102AD000E1F742C086E0F801A6EFB1E001900D9267
:102AE0008A95E1F75EC04D875E878D859E850E9441
:102AF0005313811163CF8091FB0181608093FB01AF
:102B0000C8010E94E1124DC07A2DB98AA88A6E2DA3
:102B100089890E94581386E0F60111928A95E9F797
:102B20001BC0EE2009F461CF4D875E878D859E85A1
:102B30000E945313F82E882309F457CF86E0F8013A
:102B4000A6EFB1E001900D928A95E1F786EF91E052
:102B50000E94C50F0E94A6130E94981322C04D87A1
:102B60005E878D859E850E943B18292F22952F70A8
:102B7000223028F49F7039F0811105C00BC0243039
:102B800028F49F7049F4805E883020F0C8010E94CC
:102B9000E1129F2CF92C05C0F8019581907F99F7DF
:102BA000F9CF8F2D61960FB6F894DEBF0FBECDBF63
:102BB000DF91CF911F910F91FF90EF90DF90CF9019
:102BC000BF90AF909F9008951F93CF93DF93CDB7A1
:102BD000DEB72C970FB6F894DEBF0FBECDBF4F8384
:102BE000588769877A878B879C87CE0107960E94D2
:102BF00012148823D1F09F8188852A853B85232B59
:102C000031F08F3F31F481E09F3F19F403C081E040
:102C100001C080E080FD47C04F81588569857A8575
:102C20008B859C850E9467133EC086E0FE01379627
:102C3000DE01119601900D928A95E1F7FF81E885FA
:102C40006A857B856115710531F0EF3F31F481E0D4
:102C5000FF3F19F403C081E001C080E080FD23C084
:102C60002091C50130E0C9010196877099274091F4
:102C7000C40150E084179507F1F1F983EA837D835D
:102C80006C8396E0929FD001939FB00D1124AA53BC
:102C9000BE4FFE01319601900D929A95E1F7809317
:102CA000C5010E94771316E08091C4019091C5017F
:102CB000891771F1189FC00111248A539E4F0E94F9
:102CC0001214882329F1E091C4011E9FF001112400
:102CD000EA53FE4F408151816281738184819581E5
:102CE0000E9467138091C40190E001968770992734
:102CF0008093C401D9CF0E942B131092C50110926A
:102D0000C401E6EFF1E086E0DF011D928A95E9F764
:102D10002C960FB6F894DEBF0FBECDBFDF91CF91DA
:102D20001F910895089508950C9493160C94941689
:102D30000E94961660930A0270930B0280930C0215
:102D400090930D020C9411130C9498160F931F93EB
:102D500000910A0210910B0220910C0230910D0299
:102D6000602B712B822B932B1F910F910C94981633
:102D70000F931F9300910A0210910B0220910C02F5
:102D800030910D0260237123822393231F910F91B1
:102D90000C9498160F931F9300910A0210910B0246
:102DA00020910C0230910D02602771278227932712
:102DB0001F910F910C9498160C9493160E94DC1698
:102DC00060930602709307028093080290930902B1
:102DD0000C94111360E070E0CB010C94DE160F939D
:102DE0001F9341E050E060E070E08A019B0104C065
:102DF000000F111F221F331F8A95D2F7C901B80196
:102E00001F910F910C94DE160F931F9341E050E039
:102E100060E070E004C0440F551F661F771F8A955D
:102E2000D2F78091060290910702A0910802B0911A
:102E300009028A019B01082B192B2A2B3B2BC90164
:102E4000B8011F910F910C94DE160F931F9341E070
:102E500050E060E070E004C0440F551F661F771F0C
:102E60008A95D2F7409550956095709580910602AD
:102E700090910702A0910802B09109028A019B017A
:102E8000082319232A233B23C901B8011F910F915D
:102E90000C94DE160F931F9341E050E060E070E069
:102EA00004C0440F551F661F771F8A95D2F7809183
:102EB000060290910702A0910802B09109028A01CE
:102EC0009B01082719272A273B27C901B8011F9111
:102ED0000F910C94DE160F931F9300910602109130
:102EE00007022091080230910902602B712B822B7E
:102EF000932B1F910F910C94DE160F931F9300914B
:102F00000602109107022091080230910902602305
:102F10007123822393231F910F910C94DE160F933C
:102F20001F93009106021091070220910802309130
:102F3000090260277127822793271F910F910C9414
:102F4000DE160895292F220F920F890FE82FE6959C
:102F5000E695E695877051E001C0550F8A95EAF72E
:102F600085E0E89FF0011124E450FE4F20E030E0BE
:102F700070E04081CB01022E02C0969587950A949D
:102F8000E2F78170819584278523842781932F5FC1
:102F90003F4F2530310569F70895292F220F920FF1
:102FA000890F682F669566956695982F977085E0CE
:102FB000689FB001112440E050E080E0FB01E40F85
:102FC000F51FE450FE4F208130E0092E02C03695F7
:102FD00027950A94E2F721703327042E01C0220FAF
:102FE0000A94EAF7822B4F5F5F4F4530510531F766
:102FF0000895BF92CF92DF92EF92FF920F931F93AB
:10300000CF93DF938C01C0900602D0900702E0902E
:103010000802F090090280910A0290910B02A0919F
:103020000C02B0910D02C82AD92AEA2AFB2ACFE164
:10303000D0E0D701C6010C2E04C0B695A795979590
:1030400087950A94D2F780FD04C0219790F7B12CA0
:1030500007C0BC2EB8018C2F0E94D1070197A9F39D
:103060008B2DDF91CF911F910F91FF90EF90DF900B
:10307000CF90BF900895CF93DF93EC010E94F91792
:10308000BE010E94D107DF91CF9108951F93CF9386
:10309000DF93EB019091C301992321F0CB010E94B2
:1030A0003B1813C0882349F0CB010E94F917182F51
:1030B000682FCE010E94A21704C0CB010E94CD1739
:1030C000182FBE01812F0E94D107DF91CF911F9150
:1030D000089580910E028595859585950895809136
:1030E0000E028770089590910E02977081E009F4A6
:1030F00080E0089580911A02089590911A02892B18
:1031000080931A020895809590911A0289238093E2
:103110001A02089510921A02089590911902892BAB
:1031200080931902089580959091190289238093C4
:103130001902089510921902089510921802089524
:1031400080910F02089508950C94A3180C94A4186C
:1031500090910F02981721F080930F020C94A618FB
:10316000089580910F02882329F010920F0280E0C9
:103170000C94A6180895E0910001F091010180914E
:103180001A028083E0910001F09101019081809109
:103190001902892B8083E0910001F0910101908157
:1031A00080911802892B808380910F02882381F0FF
:1031B000E0910001F09101019081892B8083809141
:1031C0000001909101010E94DC1981110E94B11847
:1031D00080910001909101010C942E0E0C94A31883
:1031E00098E0899F90011124262B20930E020E94C3
:1031F000041780910E028595859585950C94EE189F
:1032000010920E0280E00C94EE1820910E02809530
:10321000822380930E02982F977079F430E0482F24
:10322000082E000C550B2417350739F08595859528
:1032300085950E9425170C94001908959093AB0171
:103240008093AA0108958295982F937344E0949FE8
:10325000900111248C7C86958695282B822F85756C
:10326000880F2A7A2695822B089580E090E00E94AC
:103270006E2B21E08C3E9E4F09F020E0822F0895B6
:1032800082E090E00C94662B83E090E00C94662B37
:10329000CF9384E090E00E94662BC82F81E290E0FB
:1032A0000E94662B2C2F30E0A901582BCA01CF9128
:1032B0000895CF93C92F682F84E090E00E94742B6B
:1032C0006C2F81E290E0CF910C94742BAB01BC0188
:1032D0008FE090E00C94862BAB01BC0183E190E081
:1032E0000C94862B60E070E0CB010C946C1960E0CC
:1032F00070E0CB010E9466190C9472196CEE7EEF9F
:1033000080E090E00E94922B60E082E090E00E94DA
:10331000742B60E083E090E00E94742B10920A020C
:1033200010920B0210920C0210920D0260E084E0E9
:1033300090E00E94742B60E081E290E00E94742B88
:1033400060E085E090E00E94742B60E086E090E011
:103350000E94742B6FEF87E090E00E94742B40E096
:1033600050E0BA0188E090E00E94862B60E08DE09A
:1033700090E00E94742B40E050E0BA0188E190E0B8
:103380000E94862B60E087E190E00E94742B40E071
:1033900050E0BA018CE190E00E94862B60E080E270
:1033A00090E00E94742B0C9477190C947E19682F6E
:1033B0008EE090E00C94742BFC01329697E080E054
:1033C000915029F021912223D9F38F5FF9CF0895ED
:1033D000662349F0FC01329608962191621729F084
:1033E000E817F907D1F780E0089581E008959C017E
:1033F000FC0132969FEF80E04191461789F09F3F94
:1034000019F4411101C0982F8F5F8630A9F79F3FB3
:1034100039F0F901E90FF11D97FDFA9562830895DE
:1034200008959C012A5F3F4FFC014281461301C071
:103430001282019682179307B9F708950C94F71931
:103440000C94111A029626E0FC0111922A95E9F7D4
:10345000089508950C94291A0C94291ACF930E9468
:103460002C1A0E94540A0E942A1AC0E08C2F0E9433
:10347000AA09811104C0CF5FC330C1F701C081E048
:10348000CF9108950C94291A0C94421A0E94441A60
:1034900080914D02843049F110921C0220E488E1B1
:1034A00090E00FB6F894A895809360000FBE20932B
:1034B000600080E00E944A070E94441A83B7817F1F
:1034C000846083BF83B7816083BF7894889583B716
:1034D0008E7F83BF0FB6F894A895809160008861B5
:1034E00080936000109260000FBE08950C94291A1A
:1034F0000E942B130E94220E0E944A070C94761AF7
:103500001F920F920FB60F9211248F939F93AF9338
:10351000BF9380911C02811113C08091430290914E
:103520004402A0914502B09146024196A11DB11DF1
:103530008093430290934402A0934502B0934602C5
:10354000BF91AF919F918F910F900FBE0F901F90E1
:10355000189582E084BD93E095BD9AEF97BD809366
:103560006E0008952FB7F894809143029091440221
:10357000A0914502B09146022FBF08952FB7F8944D
:1035800060914302709144028091450290914602FD
:103590002FBF08959C014FB7F894809143029091FA
:1035A0004402A0914502B09146024FBF821B930B8B
:1035B000089578941F920F920FB60F9211248F9353
:1035C0009F93AF93BF938091430290914402A09147
:1035D0004502B09146020196A11DB11D80934302A0
:1035E00090934402A0934502B0934602BF91AF91DD
:1035F0009F918F910F900FBE0F901F90189587E7A6
:1036000097E790930108809300089AE088E10FB64D
:10361000F894A895809360000FBE90936000FFCF50
:103620000E943519811102C00E94D5190E944019CB
:1036300080931B020E94481990934802809347028E
:103640000E944419682F70E080E090E00C94A4166A
:103650008091240280FF0BC06091070185E0689F84
:10366000B001112475956795759567952BC081FFFD
:1036700009C06091070185E0689FB001112475952C
:10368000679520C082FF07C06091070185E0689FB1
:10369000B001112417C0909123029923D1F06091B9
:1036A0000601961788F72091070185E0289F900171
:1036B0001124929FA001939F500D112470E0CA0124
:1036C0000E94382B6038710540F46115710519F4BA
:1036D00006C065E070E0862F08958FE7089581E0C9
:1036E00008958091240280FF08C06091030170E07A
:1036F000759567957595679521C081FF06C06091A6
:10370000030170E07595679519C082FF04C0609150
:10371000030170E010C090912302992399F0609109
:1037200002019617A0F780910301899FC00111241F
:1037300070E00E94382B6038710540F46115710506
:1037400019F406C061E070E0862F08958FE70895B0
:1037500081E00895803F21F40E94281B819504C0D8
:10376000813F29F40E94281B809328020895823FFC
:1037700021F40E94281B819504C0833F29F40E94F4
:10378000281B809327020895893F19F40E94711B1A
:1037900005C08A3F31F40E94711B819580932902F4
:1037A00008958B3F21F40E94711B819504C08C3FCA
:1037B00029F40E94711B80932A020895843F21F40A
:1037C00080912602816017C0853F21F480912602F6
:1037D000826011C0863F21F48091260284600BC074
:1037E000873F21F480912602886005C0883F31F42C
:1037F0008091260280618093260208958D3F21F4F6
:103800008091240281600BC08E3F21F480912402BC
:10381000826005C08F3F29F48091240284608093E8
:1038200024020895803F39F48091280287FF6CC0FC
:103830001092280269C0813F29F48091280218164D
:10384000BCF362C090912702823F29F497FF5CC0CD
:103850001092270259C0833F19F41916CCF354C0B3
:10386000893F41F48091290218160CF04DC0109246
:1038700029024AC08A3F29F48091290287FF44C067
:10388000F6CF8B3F39F480912A0287FF3DC010921A
:103890002A023AC08C3F29F480912A021816BCF300
:1038A00033C0843F21F4809126028E7F17C0853F6C
:1038B00021F4809126028D7F11C0863F21F48091F2
:1038C00026028B7F0BC0873F21F480912602877FE1
:1038D00005C0883F31F4809126028F7E80932602B6
:1038E00013C08D3F21F4809124028E7F0BC08E3F48
:1038F00021F4809124028D7F05C08F3F29F48091AF
:1039000024028B7F809324028091270281110EC0B4
:103910008091280281110AC080912902811106C07C
:1039200080912A02811102C0109223020895809191
:103930001B0283FF7EC082EA91E00E9435068091DF
:1039400026021F928F938DE991E09F938F930E949F
:10395000CE068BE991E00E94350680912702282F40
:10396000082E000C330B3F938F9388E991E09F93CF
:103970008F930E94CE0686E991E00E9435068091E1
:103980002802282F082E000C330B3F938F9383E9D6
:1039900091E09F938F930E94CE0681E991E00E946F
:1039A000350680912902282F082E000C330B3F93F7
:1039B0008F938EE891E09F938F930E94CE068CE8C0
:1039C00091E00E94350680912A02282F082E000CD3
:1039D000330B3F938F9389E891E09F938F930E94DD
:1039E000CE0686E891E00E943506809123021F9260
:1039F0008F9383E891E09F938F930E94CE0681E896
:103A000091E00E943506809124021F928F938EE7E9
:103A100091E09F938F930E94CE068BE791E00E94E6
:103A200035068DB79EB74C960FB6F8949EBF0FBE65
:103A30008DBF85E292E00E94770E0E94B21A9093A9
:103A40002202809321020895CF93DF9300D000D00B
:103A500000D0CDB7DEB786E0E5E2F2E0DE011196F8
:103A600001900D928A95E1F780912702811105C09E
:103A700080912802882309F47AC080911F029091D6
:103A800020020E94CA1AAC0190912302992339F0B6
:103A90002091080130E02417350758F068C02091C4
:103AA00009018AE0289F900111242417350718F096
:103AB0005EC09F3F19F09F5F9093230210922902EE
:103AC00010922A0280912702181624F40E94281BC3
:103AD000809327028091270287FF05C00E94281B40
:103AE00081958093270280912802181624F40E9461
:103AF000281B809328028091280287FF05C00E941E
:103B0000281B819580932802309127023323E1F00E
:103B1000209128022223C1F045EB3403C001112477
:103B2000992319F09093270203C081E08093270224
:103B300035EB2303C0011124992319F09093280237
:103B400003C081E0809328020E94971C809121028B
:103B5000909122029093200280931F0286E0FE0142
:103B60003196A5E2B2E001900D928A95E1F780913D
:103B70002902811105C080912A02882309F47AC0A4
:103B800080911D0290911E020E94CA1AAC01909170
:103B90002302992339F02091040130E024173507DE
:103BA00058F068C0209105018AE0289F90011124F7
:103BB0002417350718F05EC09F3F19F09F5F909360
:103BC00023021092270210922802809129021816CF
:103BD00024F40E94711B809329028091290287FF9F
:103BE00005C00E94711B81958093290280912A0251
:103BF000181624F40E94711B80932A0280912A02D5
:103C000087FF05C00E94711B819580932A02309125
:103C100029023323E1F020912A022223C1F045EB4F
:103C20003403C0011124992319F09093290203C091
:103C300081E08093290235EB2303C00111249923ED
:103C400019F090932A0203C081E080932A020E9417
:103C5000971C809121029091220290931E028093E2
:103C60001D0286E0FE013196A5E2B2E001900D92C0
:103C70008A95E1F726960FB6F894DEBF0FBECDBF4A
:103C8000DF91CF910895E5E2F2E086E0DF011D9239
:103C90008A95E9F71092230210922402089585EC88
:103CA00093E00E9435061F9281E08F931F9285E07A
:103CB0008F9387E793E09F938F930E94CE060F9098
:103CC0000F900F900F900F900F9008958330E9F1AF
:103CD00028F4813061F0823009F10895853009F4CB
:103CE00062C008F449C0863009F474C00895809118
:103CF0000901262F30E0280F311D2F3F310524F414
:103D0000680F6093090103C08FEF809309018091D0
:103D100009011F928F9380EB92E072C0809108019D
:103D2000262F30E0280F311D2F3F310524F4680F76
:103D30006093080103C08FEF809308018091080110
:103D40001F928F938EE992E05BC080910701262F2E
:103D500030E0280F311D2F3F310524F4680F6093A8
:103D6000070103C08FEF80930701809107011F9225
:103D70008F938BE892E044C080910601262F30E0BB
:103D8000280F311D2F3F310524F4680F6093060181
:103D900003C08FEF80930601809106011F928F93DD
:103DA00086E792E02DC080910301262F30E0280F96
:103DB000311D2F3F310524F4680F6093030103C0C8
:103DC0008FEF80930301809103011F928F938DE504
:103DD00092E016C080910201262F30E0280F311D9D
:103DE0002F3F310524F4680F6093020103C08FEF69
:103DF00080930201809102011F928F9382E492E0EE
:103E00009F938F930E94CE060F900F900F900F906C
:103E10000895833081F128F4813059F08230D1F057
:103E20000895853009F449C0B8F1863009F456C0C8
:103E3000089580910901681720F4861B8093090179
:103E400002C010920901809109011F928F9383E3B0
:103E500092E054C080910801681720F4861B80937B
:103E6000080102C010920801809108011F928F93EF
:103E700081E292E043C080910701681720F4861B1D
:103E80008093070102C010920701809107011F92E1
:103E90008F938EE092E032C080910601681720F483
:103EA000861B8093060102C01092060180910601D4
:103EB0001F928F9389EF91E021C0809103016817D1
:103EC00020F4861B8093030102C0109203018091AD
:103ED00003011F928F9380EE91E010C08091020148
:103EE000681720F4861B8093020102C01092020121
:103EF000809102011F928F9385EC91E09F938F93A5
:103F00000E94CE060F900F900F900F900895CF93C0
:103F1000C82F1F928F938AEC94E09F938F930E94F7
:103F2000CE0681E090E0A0E0B0E0BC01CD0104C08D
:103F3000660F771F881F991FCA95D2F70E94A41693
:103F40000F900F900F900F90CF910C942B13CF9355
:103F5000DF938B3109F4EEC108F08FC18B3009F487
:103F6000B2C108F065C1863009F4B0C120F48530D3
:103F700009F4BEC161C2873009F4C1C1883009F0BB
:103F80005BC288E09AE00E94350689E599E00E94CC
:103F900035060E9444191F928F9386E599E09F93FE
:103FA0008F930E94CE0684E599E00E9435060E9418
:103FB0004019C82F81E499E00E9435061F92CF93E3
:103FC0008CE399E09F938F930E94CE068AE399E059
:103FD0000E94350680E399E00E9435068C2F81709F
:103FE0001F928F938DE299E09F938F930E94CE064C
:103FF0008BE299E00E94350681E299E00E94350645
:10400000C1FB882780F91F928F938EE199E09F93DF
:104010008F930E94CE068CE199E00E94350680E1E4
:1040200099E00E943506C2FB882780F91F928F9382
:104030008DE099E09F938F930E94CE068BE099E0EC
:104040000E94350682E099E00E943506C3FBCC272A
:10405000C0F91F92CF938FEF98E09F938F930E94A8
:10406000CE068DEF98E00E9435060E944819EC01BB
:1040700089EE98E00E943506DF93CF9384EE98E0B6
:104080009F938F930E94CE0682EE98E00E943506A1
:1040900089EC98E00E9435068C2F81701F928F93D7
:1040A00086EC98E09F938F930E94CE068DB79EB7C3
:1040B00080960FB6F8949EBF0FBE8DBF84EC98E03B
:1040C0000E9435068DEA98E00E943506C1FB8827DC
:1040D00080F91F928F938AEA98E09F938F930E94B2
:1040E000CE0688EA98E00E94350686E998E00E94AC
:1040F00035068D2F81701F928F9383E998E09F93EF
:104100008F930E94CE0681E998E00E9435068FE7E2
:1041100098E00E943506D695D1701F92DF938CE708
:1041200098E09F938F930E94CE068AE798E00E94C2
:10413000350688E698E00E943506C2FB882780F99C
:104140001F928F9385E698E09F938F930E94CE06EF
:1041500083E698E00E94350681E598E00E943506E6
:10416000C3FB882780F91F928F938EE498E09F937A
:104170008F930E94CE068CE498E00E94350682E47C
:1041800098E00E943506C4FB882780F91F928F9320
:104190008FE398E09F938F930E94CE068DE398E083
:1041A0000E9435068BE298E00E943506C5FB882701
:1041B00080F91F928F9388E298E09F938F930E94DB
:1041C000CE0686E298E00E9435068AE098E00E94DA
:1041D0003506C6FB882780F91F928F9387E098E009
:1041E0009F938F930E94CE068DB79EB780960FB691
:1041F000F8949EBF0FBE8DBF85E098E00E94350603
:104200008DEF97E00E943506C7FBCC27C0F91F92BF
:10421000CF938AEF97E09F938F930E94CE0688EF0B
:1042200097E00E9435060F900F900F900F9049C0B5
:10423000803109F4A9C020F48E3009F48FC0FCC08D
:10424000863109F4BCC0893109F0F6C08FE196E0EF
:104250000E94350686E096E00E9435068CEC95E0DB
:104260000E94350689E995E00E94350683E695E0CF
:104270000E94350688E395E084C08A32E1F060F45C
:10428000873209F4D5C028F48E3108F4D5C08D5199
:10429000D0C0893269F1D0C0833448F48A3308F041
:1042A000C5C0853309F4C4C0883369F0C5C0833400
:1042B00009F4BEC0C1C087EF99E00E9435060E9494
:1042C000D519C1E0BEC085E596E05BC080911B02B8
:1042D000817F8E7F80931B028EE296E00E943506DE
:1042E00083EF99E00E94350681E080932C02E9CFAC
:1042F00087ED99E00E9435060E945407E2CF809135
:104300001B02C82FC095C170C0FB80F980931B02AF
:10431000CC2329F08BEC99E00E94350692C08EEBFD
:1043200099E00E94350680911B02897F877F8093E8
:104330001B02C7CF90911B0291FBCC27C0F981E0F3
:10434000C827892FC0FB81F980931B02CC2319F069
:1043500081EB99E029C083EA99E013C090911B0298
:1043600092FBCC27C0F981E0C827892FC0FB82F9D6
:1043700080931B02CC2319F084E999E015C084E8EE
:1043800099E00E9435069DCF90911B0293FBCC27AC
:10439000C0F981E0C827892FC0FB83F980931B02F5
:1043A000CC2351F088E799E00E94350680911B02EA
:1043B000816080931B0245C08BE699E0E2CF8AE2E0
:1043C00095E00E9435060E94220E1F928F9380E195
:1043D00095E09F938F930E94CE06809114011F92C7
:1043E0008F9389EF94E09F938F930E94CE068091E4
:1043F00039021F928F9386EE94E09F938F930E94D1
:10440000CE060E94BE1A9F938F937F936F938FEC7B
:1044100094E09F938F930E94CE068DB79EB74296ED
:104420000FB6F8949EBF0FBE8DBF4BCF895301C00E
:1044300080E00E94871F45CF89E699E00E943506FB
:10444000C0E08C2FDF91CF91089580E008950C9407
:1044500025228E518A3030F4E82FF0E0EF56FE4FDF
:104460008081089580E00895CF93C82F80912C0219
:10447000813059F020F0823009F445C039C10E94E2
:104480007A18823209F036C104C00E947A1882324A
:1044900061F48C2F0E942722811104C08C2F0E946E
:1044A000A71F2FC081E090E02CC08C2F0E942522F6
:1044B000811126C0C431E1F070F4CB3081F0C031FD
:1044C000D1F40E944F1E82EC94E00E94350682E0F7
:1044D00080932C0215C0C93259F0C83361F48EE2C2
:1044E00096E00E94350686EC94E00E94350608C0EE
:1044F00010922C0201C180EC94E00E943506FCC0B1
:1045000081E08170FBC0C43228F5CE3108F0C1C013
:10451000CB30A1F1D0F4C73009F0D0C08EE1809348
:10452000090182E3809308018AE08093070184E116
:104530008093060188E08093030188E28093020162
:1045400086E693E00E943506BCC0C33149F1C43110
:10455000C1F0B4C0CB3409F4A6C028F4C93289F044
:10456000C83361F0ABC0C13509F49BC0C23509F452
:1045700096C0CE3409F0A2C06AE09BC00E944F1ED4
:10458000A0C080912B02882319F010922B0299C0B1
:1045900083E793E00E94350681E080932C02AEC051
:1045A0008DE493E00E9435068BE393E00E9435068C
:1045B000809109011F928F9388E393E09F938F93DB
:1045C0000E94CE0686E393E00E94350684E293E0E3
:1045D0000E943506809108011F928F9381E293E03B
:1045E0009F938F930E94CE068FE193E00E94350641
:1045F00080E193E00E943506809107011F928F931E
:104600008DE093E09F938F930E94CE068BE093E022
:104610000E9435068AEF92E00E94350680910601DD
:104620001F928F9387EF92E09F938F930E94CE0605
:1046300085EF92E00E94350680EE92E00E943506FA
:10464000809103011F928F938DED92E09F938F9342
:104650000E94CE068BED92E00E94350684EC92E03B
:104660000E943506809102011F928F9381EC92E0A7
:104670009F938F930E94CE068FEB92E00E943506A7
:104680008DB79EB748960FB6F8949EBF0FBE8DBFEC
:1046900018C08C2F0E94292280932B0212C061E047
:1046A00003C061E006C06AE080912B020E94661E92
:1046B00008C080912B020E94091F03C084E693E08A
:1046C00013C080912B02882369F01F928F938EE58F
:1046D00093E09F938F930E94CE060F900F900F90C0
:1046E0000F9004C08BE593E00E94350681E006C080
:1046F00010922C0280E002C080E003CFCF91089599
:104700008091380208959FB7F89410922F029FBFAE
:1047100090914D02943009F057C09091E9009F703C
:104720003091EC00232F217030FD20E8922B23E004
:104730002093E9002091EB0020FF43C02091EE0080
:1047400027FF3FC020912D02222321F02091E80075
:1047500025FF37C010922D0226E03091E80035FD8C
:1047600015C030914D02343061F53091EB0035FDCC
:1047700028C0215021F481E080932D0222C0EFE96E
:10478000FFE03197F1F700C00000E7CF8093F10020
:104790008091E80085FD0AC08091E80080FFFCCF91
:1047A0008091E8008E778093E80006C08FB7F89478
:1047B00021E020932F028FBF9F709093E90080E04B
:1047C00008959F709093E9008FEF0895CF93DF9342
:1047D00000D01F92CDB7DEB790914D02943019F5FD
:1047E00089837B836A8382E08093E9008FEF9091D5
:1047F000E800815095FD06C095ED9A95F1F700000F
:104800008111F5CF8091E80085FF0DC040E050E0B8
:1048100063E070E0CE0101960E948F268091E8004F
:104820008E778093E8000F900F900F90DF91CF91DB
:104830000895CF93DF93EC010E947226823011F02D
:10484000843031F4BE0184E0DF91CF910C94E623F3
:10485000DF91CF910895BC0183E00C94E623CF93C0
:10486000DF93EC010E947226823011F08430F9F45B
:1048700082E08093E9008FEF9091E800815095FDF0
:1048800006C095ED9A95F1F700008111F5CF809162
:10489000E80085FF0CC040E050E066E070E0CE012B
:1048A0000E948F268091E8008E778093E800DF9148
:1048B000CF910895CF93DF93EC010E94722682304E
:1048C00011F0843039F581E08093E9008FEF909109
:1048D000E800815095FD06C095ED9A95F1F700002E
:1048E0008111F5CF8091E80085FF14C040E050E0D1
:1048F00068E070E0CE010E948F268091E8008E77FC
:104900008093E80088E0FE01A0E3B2E001900D9200
:104910008A95E1F7DF91CF91089588E39AE00E94AC
:10492000350680914C02811109C00E9420280E9406
:104930007D288091E20084608093E200089584E302
:104940009AE00E94350610924C02089580E39AE0A6
:104950000C9435068CE29AE00C94350688E29AE0D5
:104960000E9435060C94781A20912E022F5F822F18
:1049700062E30E942C2B992319F020932E020895B4
:1049800010922E0280912F02882371F180914D02A6
:10499000843041F58091E9008F702091EC00922FD6
:1049A000917020FD90E8892B93E09093E90090911D
:1049B000EB0090FF14C09091EE0097FF10C0909113
:1049C000E80095FF03C01092F100F9CF9091E80044
:1049D00090FF05C09091E8009E779093E8008F705B
:1049E0008093E90010922F02089542E061EC81E08B
:1049F0000E94992742E261EC82E00E94992742E2FC
:104A000061EC83E00C94992780914F02833009F484
:104A100060C030F4813071F0823009F499C008959B
:104A20008A3009F485C08B3009F46BC0893009F0F5
:104A3000A7C020C080914E02813A09F0A1C08091A8
:104A4000E800877F8093E8008091520290915302A2
:104A5000892B21F468E080E392E003C060E080E00D
:104A600090E070E00E94DA268091E8008B778093D6
:104A7000E800089580914E02813209F081C0809152
:104A8000520290915302029708F07AC08091E80098
:104A9000877F8093E8008091E80082FD05C08091C7
:104AA0004D028111F8CF6CC02091F3008091F2008B
:104AB00090E0922B029729F48091F1008B7F813056
:104AC00021F48091F100809338028091E8008B7787
:104AD00053C080914E02813A09F052C08091520237
:104AE00090915302892B09F04BC08091E800877F99
:104AF0008093E8008091E80080FFFCCF8091140152
:104B000036C080914E028132D9F580915202909147
:104B10005302892BA9F58091E800877F8093E800F4
:104B20000E94CE2780915002809314010C942B1385
:104B300080914E02813221F58091E800877F809339
:104B4000E8000E94CE278091510280933902089597
:104B500080914E02813AA1F48091E800877F809392
:104B6000E8008091E80080FFFCCF809139028093BB
:104B7000F1008091E8008E778093E8000C94CE27B6
:104B8000089584B7877F84BF0FB6F894A895809165
:104B90006000886180936000109260000FBE90E01A
:104BA00080E80FB6F89480936100909361000FBE87
:104BB0000E94C10E0E9420280E947D288091E20060
:104BC00084608093E20083E893E20E941E19789447
:104BD0000E94112B0E94CB0E8AE091E00E941D0ED4
:104BE00087E19AE00E94350680914D02853089F474
:104BF00083E19AE00E9435060E94461A80914B029A
:104C0000882391F30E942E1A882371F30E9479263B
:104C1000EBCF0E94FD0EE8CF0C940E26292F3327F0
:104C200023303105C9F060F42130310581F02230A4
:104C3000310509F047C08BE590E020E73AE046C037
:104C40002132310511F12232310561F13BC082E19F
:104C500090E02BEC3AE03AC099278130910561F061
:104C600040F08230910559F0039761F5ECE3FAE0EA
:104C700008C0ECE6FAE005C0E8E6FAE002C0E2E4CB
:104C8000FAE0849190E09F0121C063307105D0F477
:104C9000660F771FFB01EC55FE4F2081318189E0C3
:104CA00090E014C06330710568F4FB01EE0FFF1F44
:104CB000E256FE4F20813181FB01E556FE4F808197
:104CC00090E004C080E090E020E030E0FA01318321
:104CD0002083089580914D02843011F081E0089581
:104CE00082E0089580913A02811102C00C946A26F4
:104CF000089580E189BD82E189BD09B400FEFDCF40
:104D00008091D8008F7D8093D8008091E0008260F0
:104D10008093E0008091E00081FDFCCF0895CF9268
:104D2000DF92EF92FF920F931F93CF93DF93EC01EB
:104D30008B017A010E94ED27811133C0E114F10447
:104D400039F0F70180819181081B190BC80FD91F19
:104D5000C12CD12C0115110519F18091E80085FDB8
:104D600016C08091E8008E778093E800E114F1048A
:104D700049F0F70180819181C80ED91ED182C0828D
:104D800085E00FC00E94ED27882321F30AC0899196
:104D90008093F10001501109FFEFCF1ADF0ADACF3B
:104DA00080E0DF91CF911F910F91FF90EF90DF9006
:104DB000CF9008952091540230915502261737075D
:104DC00048F06115710539F42091E8002E772093A1
:104DD000E80001C0B901FC0120E06115710579F11D
:104DE00080914D028823F1F18530F1F18091E80046
:104DF00083FD3CC08091E80082FD2EC08091E800D8
:104E000080FFEBCF2091F3008091F20090E0922B95
:104E10006115710551F08830910538F42191209386
:104E2000F100615071090196F3CF21E0089709F074
:104E300020E08091E8008E778093E800CECF2111AA
:104E4000CFCF0AC080914D02882361F0853061F098
:104E50008091E80083FD0AC08091E80082FFF2CFD4
:104E600080E0089582E0089583E0089581E0089548
:104E700020915402309155022617370748F06115EA
:104E8000710539F42091E8002E772093E80001C0E5
:104E9000B901FC0120E06115710591F180914D028D
:104EA000882309F440C0853009F43FC08091E800B0
:104EB00083FD3DC08091E80082FD2FC08091E80015
:104EC00080FFE9CF2091F3008091F20090E0922BD7
:104ED0006115710559F08830910540F424912093B3
:104EE000F1003196615071090196F2CF21E00897E7
:104EF00009F020E08091E8008E778093E800CBCF26
:104F00002111CCCF0AC080914D02882361F08530F9
:104F100061F08091E80083FD0AC08091E80082FF83
:104F2000F2CF80E0089582E0089583E0089581E063
:104F30000895982F973068F59093E900981739F005
:104F40007091EC002091ED005091F00003C0242FEF
:104F5000762F50E021FD02C09F5FECCF3091EB0037
:104F60003E7F3093EB003091ED003D7F3093ED00BC
:104F70003091EB0031603093EB007093EC002093A4
:104F8000ED005093F0002091EE0027FDE5CF80E08A
:104F900008958F708093E90081E0089580914E021A
:104FA00087FF11C08091E80082FD05C080914D020D
:104FB0008111F8CF11C08091E8008B770BC08091F0
:104FC0004D02882349F08091E80080FFF8CF80915E
:104FD000E8008E778093E80008952091E4003091F6
:104FE000E50095E64091EC00842F817040FF23C0DE
:104FF0008091E80080FD1DC080914D02882399F0CA
:10500000853099F08091EB0085FD11C04091E4005E
:105010005091E5002417350729F3915011F09A01BA
:10502000E1CF84E0089582E0089583E0089581E06F
:10503000089580E008954091E80042FFDDCF089593
:105040000E948E280E949628E0EEF0E08081816028
:105050008083E8EDF0E080818F77808319BCA7ED35
:10506000B0E08C918E7F8C9380818F7E80831092B4
:105070004C0208950F931F93CF93DF930E948E28C5
:105080000E949628C8EDD0E088818F778883888138
:105090008068888388818F7D888319BC10924D0237
:1050A0001092490210924B0210924A0200EE10E058
:1050B000F80180818B7F808388818160888342E0D2
:1050C00060E080E00E949927E1EEF0E080818E7F31
:1050D0008083E2EEF0E0808181608083808188605F
:1050E0008083F80180818E7F8083888180618883BE
:1050F000DF91CF911F910F910895E8EDF0E080814D
:105100008F7E8083E7EDF0E080818160808384E0A2
:1051100082BF81E080934C020C943A28E8EDF0E0E5
:1051200080818E7F80831092E20008951092DA00D1
:105130001092E10008951F920F920FB60F92112462
:105140002F933F934F935F936F937F938F939F938F
:10515000AF93BF93EF93FF938091E10082FF0BC069
:105160008091E20082FF07C08091E1008B7F8093F5
:10517000E1000E94B4248091DA0080FF1FC080917A
:10518000D80080FF1BC08091DA008E7F8093DA0008
:105190008091D90080FF0DC080E189BD82E189BD89
:1051A00009B400FEFDCF81E080934D020E948D2462
:1051B00005C019BC10924D020E949F248091E1000D
:1051C00080FF19C08091E20080FF15C08091E2004D
:1051D0008E7F8093E2008091E20080618093E20004
:1051E0008091D80080628093D80019BC85E08093BC
:1051F0004D020E94AA248091E10084FF30C080917A
:10520000E20084FF2CC080E189BD82E189BD09B440
:1052100000FEFDCF8091D8008F7D8093D8008091D3
:10522000E1008F7E8093E1008091E2008F7E809389
:10523000E2008091E20081608093E2008091490267
:10524000882311F084E007C08091E30087FD02C04D
:1052500081E001C083E080934D020E94AE248091E2
:10526000E10083FF29C08091E20083FF25C0809187
:10527000E100877F8093E10082E080934D021092ED
:1052800049028091E1008E7F8093E1008091E200ED
:105290008E7F8093E2008091E20080618093E20043
:1052A00042E060E080E00E9499278091F0008860F1
:1052B0008093F0000E94A624FF91EF91BF91AF91DF
:1052C0009F918F917F916F915F914F913F912F911E
:1052D0000F900FBE0F901F9018951F920F920FB650
:1052E0000F9211242F933F934F935F936F937F936C
:1052F0008F939F93AF93BF93CF93DF93EF93FF93DE
:10530000C091E900CF708091EC00D82FD17080FD62
:10531000D0E81092E9008091F000877F8093F00040
:1053200078940E94B1291092E9008091F000886081
:105330008093F000CD2BCF70C093E900FF91EF91E7
:10534000DF91CF91BF91AF919F918F917F916F919D
:105350005F914F913F912F910F900FBE0F901F9033
:1053600018951F93CF93DF93CDB7DEB7AA970FB6EB
:10537000F894DEBF0FBECDBFEEE4F2E08091F10005
:10538000819322E0E635F207C9F70E940425809157
:10539000E80083FF2EC180914E0290914F02492F69
:1053A00050E04A30510508F024C1FA01E059FF4F9E
:1053B0000C944C2B803821F0823809F01AC108C0B7
:1053C00080914A0290914B02992389F082600FC02C
:1053D000809152028F70873008F00BC18093E900F2
:1053E0008091EB0085FB882780F91092E90090916D
:1053F000E800977F9093E8008093F1001092F1000D
:10540000D1C0282F2D7F09F0F4C0882319F08230F5
:1054100061F0EFC080915002813009F0EAC0933012
:1054200009F080E080934B022EC0809150028111E0
:105430002AC0809152028F702FEF280F263008F07B
:10544000D8C08093E9002091EB0020FF1CC093306E
:1054500021F48091EB00806214C09091EB00906188
:105460009093EB0021E030E0A90102C0440F551FEA
:105470008A95E2F74093EA001092EA008091EB00EF
:1054800088608093EB001092E9008091E800877FAC
:105490008093E8000E94CE27ACC08111AAC0109171
:1054A00050021F778091E3008078812B8093E30086
:1054B0008091E800877F8093E8000E94CE2780914A
:1054C000E80080FFFCCF8091E30080688093E300D8
:1054D000111102C082E001C083E080934D0289C0B7
:1054E0008058823008F085C080915002909151021E
:1054F0008C3D53E0950779F583E08A838AE28983BE
:105500004FB7F894DE01139620E03EE051E2E32F1E
:10551000F0E050935700E49120FF03C0E295EF7054
:105520003F5FEF708E2F90E0EA3010F0C79601C019
:10553000C0968D939D932F5F243149F74FBF809183
:10554000E800877F8093E8006AE270E0CE01019670
:105550000E94DA2616C06091520270915302AE0189
:105560004F5F5F4F0E940C26BC01892B09F441C09C
:105570009091E800977F9093E80089819A810E943A
:1055800038278091E8008B778093E80032C080381C
:1055900081F58091E800877F8093E800809149023F
:1055A0008093F1008091E8008E7772CF811121C045
:1055B000809150029091510299270297D4F48091E2
:1055C000E800877F8093E800809150028093490231
:1055D0000E94CE2780914902811106C08091E3008C
:1055E00087FD02C081E001C084E080934D020E94EB
:1055F000F5248091E80083FF0AC08091E800877F4E
:105600008093E8008091EB0080628093EB00AA9683
:105610000FB6F894DEBF0FBECDBFDF91CF911F91C3
:105620000895CF9380914D028823A1F0C091E900A5
:10563000CF709091EC00892F817090FD80E8C82B8D
:105640001092E9008091E80083FD0E94B129CF709B
:10565000C093E900CF910895991B79E004C0991F88
:10566000961708F0961B881F7A95C9F780950895BC
:1056700097FB072E16F4009407D077FD09D00E94FF
:10568000522B07FC05D03EF4909581959F4F0895CD
:10569000709561957F4F0895EE0FFF1F0590F4916F
:1056A000E02D0994AA1BBB1B51E107C0AA1FBB1F19
:1056B000A617B70710F0A61BB70B881F991F5A959E
:1056C000A9F780959095BC01CD010895F999FECF79
:1056D00092BD81BDF89A992780B50895A8E1B0E000
:1056E00042E050E00C949A2B262FF999FECF92BD00
:1056F00081BDF89A019700B4021639F01FBA20BD97
:105700000FB6F894FA9AF99A0FBE08950396272FC8
:105710000E94752B0E94742B252F0E94752B242F1D
:105720000C94752B0196272F0E94752B0C94742BCB
:10573000DC01CB01FC01F999FECF06C0F2BDE1BD51
:10574000F89A319600B40D9241505040B8F7089540
:04575000F894FFCFFB
:1057540010022808641E140A321E80235A242F249F
:105764002B24192401E200E900EA00B500B600B7D1
:1057740000CD008301CC008A01920194012102230F
:105784000224022502260227022A02B300B4006F73
:105794000070008182833534C636323300FF010045
:1057A400010000FFFF0000010001FF00F4F6F5F71F
:1057B400E200E900EA00B500B600B700CD008301BD
:1057C400CC008A01920194012102230224022502C1
:1057D400260227022A02B300B4006F0070008182FF
:1057E4008301020304050607080900408122800B97
:0A57F400FF0ADD0A820A9B0AB40ACC
:00000001FF
