:100000000C94E0050C9427060C9427060C94270604
:100010000C9427060C9427060C9427060C942706AC
:100020000C9427060C9427060C948A270C945C28C1
:100030000C946F190C9427060C9427060C94270631
:100040000C9427060C9427060C9427060C9427067C
:100050000C9427060C94C8190C9427060C942706B8
:100060000C9427060C9427060C9427060C9427065C
:100070000C9427060C9427060C9427060C9427064C
:100080000C9427060C9427060C9427060C9427063C
:100090000C9427060C9427060C9427060C9427062C
:1000A0000C9427060C9427060C942706A40FA40F83
:1000B000D60FD60F231041108C118C1183101C11F8
:1000C0002D112D112C122C123E123E1235123E1201
:1000D0003E123E122C122C123A123E123E123A12CC
:1000E000C928F028E829F028E8293C295F29E829CF
:1000F000B629C5291E001F00200021002200230070
:1001000024002500260044454255473A206469737F
:1001100061626C65642E0A0044454255473A206589
:100120006E61626C65642E0A000A00253038620038
:100130003A200025303258000A722F6320303132C5
:1001400033343536370A000A002530325820006B28
:100150006579626F6172645F7265706F72743A2064
:10016000000A0025303258006B6579626F61726455
:100170005F7365745F6C65643A2000290A00257519
:10018000002F002575005D280025640020002564EF
:1001900000200025640020002564007C002530320A
:1001A00058006D6F7573656B6579205B62746E7C4A
:1001B000782079207620685D287265702F61636CE5
:1001C000293A205B006D6B5F776865656C5F7469C9
:1001D0006D655F746F5F6D6178203D2025640A0056
:1001E0006D6B5F776865656C5F6D61785F73706577
:1001F0006564203D2025640A006D6B5F74696D6540
:100200005F746F5F6D6178203D2025640A006D6B1F
:100210005F6D61785F7370656564203D2025640AB9
:10022000006D6B5F696E74657276616C203D202590
:10023000640A006D6B5F64656C6179203D20256404
:100240000A006D6B5F776865656C5F74696D655FEB
:10025000746F5F6D6178203D2025640A006D6B5FCF
:10026000776865656C5F6D61785F73706565642044
:100270003D2025640A006D6B5F74696D655F746F66
:100280005F6D6178203D2025640A006D6B5F6D61B4
:10029000785F7370656564203D2025640A006D6B8E
:1002A0005F696E74657276616C203D2025640A007A
:1002B0006D6B5F64656C6179203D2025640A000ADE
:1002C00000257500363A20776865656C5F74696D46
:1002D000655F746F5F6D61783A20000A00257500D4
:1002E000353A20776865656C5F6D61785F7370651E
:1002F00065643A20000A00257500343A2074696D5F
:10030000655F746F5F6D61783A20000A00257500A3
:10031000333A206D61785F73706565643A20000A36
:1003200000257500323A20696E74657276616C281A
:100330006D73293A20000A00257500313A20646562
:100340006C6179282A31306D73293A20000A092D11
:100350002056616C756573202D0A004D3E004D25B9
:10036000643E20003F007365742064656661756CAF
:10037000740A00433E200077686572652064656CEE
:1003800074613A20637572736F723D25642C207717
:100390006865656C3D25640A5365652068747470F2
:1003A0003A2F2F656E2E77696B6970656469612ECF
:1003B0006F72672F77696B692F4D6F7573655F6B10
:1003C0006579730A000A092D204D6F7573656B6599
:1003D00079202D0A4553432F713A09717569740AC2
:1003E000313A0964656C6179282A31306D73290AC4
:1003F000323A09696E74657276616C286D73290AE8
:10040000333A096D61785F73706565640A343A093F
:1004100074696D655F746F5F6D61780A353A09774D
:100420006865656C5F6D61785F73706565640A36D9
:100430003A09776865656C5F74696D655F746F5FB5
:100440006D61780A0A703A097072696E742076617B
:100450006C7565730A643A09736574206465666136
:10046000756C74730A75703A092B310A646F776E74
:100470003A092D310A706775703A092B31300A70CC
:1004800067646F776E3A092D31300A0A73706565BB
:1004900064203D2064656C7461202A206D61785F62
:1004A0007370656564202A20287265706561742008
:1004B0002F2074696D655F746F5F6D6178290A0024
:1004C0003F004D3E2000433E20004C25640A00744E
:1004D000696D65725F72656164333228293A20253F
:1004E00030346C580A006B6579626F6172645F69C1
:1004F000646C653A2025580A006B6579626F6172F9
:10050000645F70726F746F636F6C3A2025580A00D5
:10051000686F73745F6B6579626F6172645F6C653D
:10052000647328293A2025580A000A092D2053749B
:1005300061747573202D0A004743433A20352E34E9
:100540002E30204156522D4C4942433A20322E3013
:100550002E30204156525F415243483A2061767214
:10056000350A004F5054494F4E533A204C5546419E
:10057000204D4F5553454B45592045585452414BFA
:10058000455920434F4E534F4C4520434F4D4D410D
:100590004E4420343039360A004255494C443A2002
:1005A00022302E392E32312D34392D676434646374
:1005B000326122202830323A31343A3333204A75BE
:1005C0006C2020322032303230290A005649443A19
:1005D000203078464545442829205049443A203067
:1005E0007830303030284661726577656C6C204D0C
:1005F0006163726F70616429205645523A203078E9
:10060000303030310A00444553433A204661726528
:1006100077656C6C204D6163726F7061640A000ACB
:10062000092D2056657273696F6E202D0A000A0924
:100630002D20436F6E736F6C65202D0A4553432F39
:10064000713A09717569740A6D3A096D6F75736550
:100650006B65790A000A092D204D61676963202DB9
:100660000A443A094465627567204D657373616792
:100670006520546F67676C650A583A094D6174725A
:100680006978204465627567204D6F646520546FFA
:1006900067676C65202D2053686F77206B657970D4
:1006A00072657373657320696E206D617472697809
:1006B00020677269640A4B3A094B6579626F61720F
:1006C0006420446562756720546F67676C65202DF0
:1006D0002053686F77206B65797072657373207231
:1006E00065706F72740A4D3A094465627567204DF2
:1006F0006F75736520546F67676C650A563A0956C3
:10070000657273696F6E0A533A0953746174757335
:100710000A433A09416374697661746520436F6ED8
:10072000736F6C65204D6F64650A46312D4631301C
:100730003A0953776974636820746F204C61796556
:100740007220302D392028463130203D204C302970
:100750000A302D393A0953776974636820746F2021
:100760004C6179657220302D390A47524156453A1D
:100770000953776974636820746F204C61796572DE
:1007800020302028616C7465726E617465290A429C
:100790003A094A756D7020746F20426F6F746C6FE8
:1007A000616465720A4553433A094A756D70207455
:1007B0006F20426F6F746C6F616465722028616C8A
:1007C0007465726E617465290A453A095072696EE2
:1007D0007420454550524F4D2053657474696E67BF
:1007E000730A4253504143453A09436C6561722094
:1007F000454550524F4D0A000A002575002E6E6B7C
:10080000726F3A20000A002575002E737761705FC1
:100810006261636B736C6173685F6261636B737059
:100820006163653A20000A002575002E73776170B8
:100830005F67726176655F6573633A20000A002521
:1008400075002E6E6F5F6775693A20000A00257586
:10085000002E737761705F72616C745F7267756987
:100860003A20000A002575002E737761705F6C6175
:100870006C745F6C6775693A20000A002575002E5C
:10088000737761705F7263746C5F726775693A2029
:10089000000A002575002E737761705F6C63746CBD
:1008A0005F6C6775693A20000A002575002E636148
:1008B00070736C6F636B5F746F5F636F6E74726F76
:1008C0006C3A20000A002575002E737761705F6313
:1008D0006F6E74726F6C5F636170736C6F636B3A91
:1008E00020000A0025303258006B65796D61705F19
:1008F000636F6E6669672E7261773A20000A002581
:1009000075002E6D6F7573653A20000A002575001D
:100910002E6B6579626F6172643A20000A0025755A
:10092000002E6D61747269783A20000A0025750006
:100930002E656E61626C653A20000A0025303258DF
:100940000064656275675F636F6E6669672E7261CA
:10095000773A20000A0025750064656661756C743D
:100960005F6C617965723A20003F000A6D6F7573A4
:10097000653A206F66660A000A6D6F7573653A20E6
:100980006F6E0A000A6B6579626F6172643A206F5C
:1009900066660A000A6B6579626F6172643A206F5D
:1009A0006E0A000A6D61747269783A206F66660A91
:1009B000000A6D61747269783A206F6E0A000A64E9
:1009C000656275673A206F66660A000A646562753B
:1009D000673A206F6E0A000A0A4A756D70696E6781
:1009E00020746F20626F6F746C6F616465722E2E5D
:1009F0002E2000433E2000436C656172696E6720C3
:100A0000454550524F4D0A006565636F6E666967D4
:100A10003A0A005B735D004B6579626F6172642016
:100A200073746172742E0A005B575D005B535D0046
:100A30005B525D005B445D005B435D00040330007E
:100A40000000240346006100720065007700650025
:100A50006C006C0020004D006100630072006F00AC
:100A60007000610064000000020300000403090438
:100A700009025B00030100A0FA0904000001030160
:100A8000010009211101000122400007058103082E
:100A9000000A0904010001030000000921110100FE
:100AA000012281000705820320000A0904020002D6
:100AB0000300000009211101000122220007058323
:100AC00003200001070503032000011201100100AB
:100AD000000008EDFE00000100010203010631FFE5
:100AE0000974A1010975150026FF0095207508817C
:100AF000020976150026FF00952075089102C005B1
:100B0000010902A10185020901A1000509190129B4
:100B10000515002501950575018102950175038173
:100B2000010501093009311581257F95027508817C
:100B30000609381581257F950175088106050C0A7F
:100B400038021581257F950175088106C0C0050111
:100B50000980A101850319012AB700150126B700F4
:100B6000950175108100C0050C0901A101850419CA
:100B7000012AA002150126A002950175108100C06E
:100B800005010906A101050719E029E7150025015E
:100B90009508750181029501750881010507190005
:100BA00029FF150026FF0095067508810005081924
:100BB000012905950575019102950175039101C003
:100BC00011241FBECFEFDAE0DEBFCDBF04B603FEB7
:100BD00027C080913C0290913D02A0913E02B091CD
:100BE0003F028730904BA740B04BD1F410923C02AB
:100BF00010923D0210923E0210923F0214BE84B742
:100C0000877F84BF0FB6F894A895809160008861B3
:100C100080936000109260000FBEE0E0F8E3099559
:100C200011E0A0E0B1E0E2E3F5E502C005900D922D
:100C3000A639B107D9F722E0A6E9B1E001C01D92BB
:100C4000AC33B207E1F70E94B0240C94972A0C94BD
:100C50000000FF93EF93E0919601F0919701309798
:100C600009F00995EF91FF910895FC01859180307D
:100C700011F0EFDFFBCF0895FF27E0E230E247FFFE
:100C80000CC0419597FF09C0EDE260957095809585
:100C90009095611D711D811D911D27FF02C0219539
:100CA00030E350E2AA27660F771F881F991FAA1FFB
:100CB000A41710F0A41B63955A95A9F7AA3008F061
:100CC000A95FA05DAF93F39561157105810591054D
:100CD00041F7ED3211F4EF93F395F21718F43F93C7
:100CE000F395FBCF8F91B5DFFA95E1F70895E99180
:100CF000F9918591803021F0853219F0AADFF9CF82
:100D0000089520E0E89455915532C1F3503311F421
:100D1000689455915A3348F4505390F3220F022EA1
:100D2000220F220F200D250FF4CF0EF4219589916B
:100D30009991533619F3533729F1533559F1BC01C1
:100D400088279927E8945C3621F4899199916894D1
:100D50005591543639F446EF7EF077FF0DC08FEF92
:100D60009FEF0AC055374AE039F0583540E121F08D
:100D7000523642E009F00895FF93EF937DDFEF9143
:100D8000FF91B7CFFF93EF93FC0181918030B9F3CE
:100D900060DFFBCFFF93EF9368DFF1CFDF93CF935B
:100DA000CDB7DEB72596A3DFCF91DF91089581E01F
:100DB000089581E008950C94D90608950C94DD06F9
:100DC0001F93CF93DF9300D000D01F92CDB7DEB733
:100DD00049835A836B833091A90189819A813111AA
:100DE00014C0662359F0222349F00E94E816182FF8
:100DF000682F89819A810E94911603C00E94BC16B7
:100E0000182F69817A81812F04C00E94E8166981B8
:100E10007A810F900F900F900F900F90DF91CF91EC
:100E20001F910C94A907FC01262F408151816281FA
:100E3000738184810C94E006CF93DF93EC0160E032
:100E40000E941307BE01DF91CF910C94DE060E9431
:100E50002418811102C00E94C4180C94EF090C944C
:100E6000EB0908950C94310781E008950C94340740
:100E7000CF93C82F0E9432078C2F0E943607CF9144
:100E8000089508950E941A120E9441072FEF84E3EB
:100E90009CE0215080409040E1F700C000000C949D
:100EA000EE190F931F93CF93DF93EC0161E00E9443
:100EB00013078C01BE010E94DB06882309F442C09F
:100EC000BE01C8010E94730B8823E1F1BE01C80175
:100ED0000E94B40B8823B1F1BE01C8010E94DF0C4F
:100EE000882381F18A81882331F101308CE518074C
:100EF00051F00E3D8CE51807D9F001151C45D9F4C9
:100F00000E9442071FC080910102C82FC095C17086
:100F1000C0FB80F980930102CC2329F088E191E0A5
:100F20000E9435060FC086E091E00E9435060BC096
:100F30000E94C41807C0CE01DF91CF911F910F917D
:100F40000C94D706C0E08C2FDF91CF911F910F91A9
:100F50000895272F30E0F901EE0FFF1F2E0F3F1FDE
:100F6000F90199E0899FE00DF11D1124E60FF11DB3
:100F7000EE0FFF1FEC50FF4F859194910895CF9392
:100F8000DF930E94A9070E94C108EC01811521E5A9
:100F9000920708F043C0811540E5940708F08AC025
:100FA000883E910520F5803E910508F0E6C0883A1C
:100FB000910570F4853A910508F074C0813091056F
:100FC00009F4DBC008F4D7C0049708F0D6C0D3C03A
:100FD0008F3B910508F0CFC0C85AD0E0CC0FDD1F81
:100FE000CB5EDE4F0990D881C02DD464C6C0C11538
:100FF00080E2D80758F4C11521E0D20708F0BDC03F
:10100000C03FD10508F4B7C0D065B7C0C11540E4F2
:10101000D40708F4B0C0DF70D06AAFC0C11585E551
:10102000D807A0F4C11524E5D20708F08AC0C1157D
:1010300043E5D40708F06FC0C11582E5D80708F072
:1010400054C0DC2FCC27C16FD06A97C0C11529E5E9
:10105000D207A0F4C11548E5D40708F077C0C11540
:1010600086E5D80708F087C08C2F0E9455098F713C
:10107000C82FD0E0DC2FCC27D0627FC0C1152AE575
:10108000D20708F468C0CE0190568115904208F04E
:1010900072C08D2F8F710E945509DD27D0628F712C
:1010A000D82B6BC0C55AD0E0CD5BDE4FC881D0E0F5
:1010B000D06463C074E0969587957A95E1F7837064
:1010C0009C2F937021E030E002C0220F331F9A95CD
:1010D000E2F73C68382BCF70C695C69580E2C89F72
:1010E000E0011124C22BD32B48C0CE018370992775
:1010F00021E030E002C0220F331F8A95E2F78C2FE7
:101100008695869540E2849FC0011124E901C82B91
:10111000D92BDC6832C0CE018370992721E030E002
:1011200002C0220F331F8A95E2F78C2F8695869591
:1011300040E2849FC0011124E901C82BD92BDA6851
:101140001CC0DC2FCC27C46FD06A17C0DC2FCC2783
:10115000C06FD06A12C08C2F8F700E94550994E026
:10116000D695C7959A95E1F7CF70D0E0DC2FCC27C4
:10117000D069C82B02C0C0E0D0E0CE01DF91CF9192
:1011800008958238910569F1B0F48133910509F42D
:101190006DC048F48932910509F463C08A32910523
:1011A00009F469C008958533910509F455C0893360
:1011B0009105B9F00895833E910569F138F4803EB8
:1011C0009105B1F0823E910509F10895863E9105A1
:1011D000A9F1873E9105B9F1843E910509F064C0FB
:1011E00023C020912D0220FD4FC021FD4DC0089548
:1011F00080912D0280FD44C080912E0280FF44C06A
:1012000080912D0284FD42C083EE4DC080912D025D
:1012100082FF38C0F5CF80912D0282FD33C08091CE
:101220002E0280FD31C0ECCF80912E0281FF32C0B2
:1012300080912D0284FD2AC087EE35C080912D0259
:1012400083FF26C0F5CF80912D0283FD21C08091C0
:101250002E0281FD1FC0ECCF80912D0285FD1CC0A8
:101260001DC080912D0285FD19C016C080912D02F0
:1012700086FD16C017C080912D0286FD13C010C0D8
:1012800089E311C082EE0FC080EE0DC080E00BC07C
:1012900086EE09C084EE07C089E205C085E303C07D
:1012A0008AE201C081E390E0089590912D0292FFBF
:1012B0000DC0282F2871283019F4877F846006C05C
:1012C000282F2471243011F48B7F886093FF0DC088
:1012D000282F2871283119F4877E846106C0282FB1
:1012E0002471243111F48B7E886120912E0220FF1D
:1012F0000DC0382F3871383019F4877F816006C0EF
:10130000382F3171313011F48E7F886021FF0DC08C
:10131000282F2871283119F4877E816106C0282F73
:101320002171213111F48E7E886194FD877E0895AC
:10133000E82FF0E0EC5DFD4F80810895CF92DF92C1
:10134000EF92FF920F931F93CF93DF9388E391E087
:101350000E94350684E2E82E82E0F82EC0E0D0E05C
:1013600093E3C92E91E0D92E0BE211E0DF93CF93E6
:10137000DF92CF920E94CE0680E391E00E94350674
:10138000F70181917F010E9412181F928F931F9382
:101390000F930E94CE0689E291E00E9435062196C5
:1013A0008DB79EB708960FB6F8949EBF0FBE8DBF3F
:1013B000C330D105D9F6DF91CF911F910F91FF90E6
:1013C000EF90DF90CF90089580EA8A95F1F7089525
:1013D00008950C94E8090C94E9090C94E8090C941C
:1013E000ED09CF93DF93A9E4B1E04CE451E061E073
:1013F00070E08D91E82FE295EF70F0E021A18F7001
:10140000EB0102C0CC0FDD1F8A95E2F7CE019C2FC5
:101410009095922391A392A1892B82A34A175B07EF
:1014200041F7A6E4B1E049E451E061E070E08D915C
:10143000E82FE295EF70F0E021A18F70EB0102C080
:10144000CC0FDD1F8A95E2F7CE019C2F9095922359
:1014500091A392A1892B82A34A175B0741F71092AF
:101460002102109224021092220210922502109260
:1014700023021092260283E00E94C80ADF91CF91D6
:101480000C9427076F927F928F929F92AF92BF9298
:10149000CF92DF92EF92FF920F931F93CF93DF9340
:1014A00089E4882E81E0982E01E212E094E2A92ED0
:1014B00092E0B92E712CCC24C394D12CF4018191EB
:1014C0004F01C82FC295CF70D0E099A18F707601DF
:1014D00001C0EE0C8A95EAF7892F8E2989A38AA18B
:1014E0006E2C609486218AA30E94E409E6E4F1E070
:1014F00040E050E020E03191A32FA295AF70B0E022
:1015000090968C9190E03F7002C0959587953A95A2
:10151000E2F780FD07C08C2D042E01C0880F0A94CD
:10152000EAF701C080E0282B4F5F5F4F4330510541
:1015300011F789A1682269A28AA1E82AEAA2F80122
:101540008081281719F0208381E001C080E0782A8B
:101550000F5F1F4FA016B10609F0B0CF272D43E053
:1015600064E272E081E292E00E94C90A0E942F07C1
:10157000872DDF91CF911F910F91FF90EF90DF901A
:10158000CF90BF90AF909F908F907F906F90089575
:101590000895FF920F931F93CF93DF938C01F62E44
:1015A000D72FC42F222349F081E080939A010E9413
:1015B000A119909399018093980180919A018823B1
:1015C000C1F080919801909199010E94B9190697F4
:1015D00080F0EF2DFD2FD8014C2F50E0CD01801B66
:1015E000910B841795071CF48D918193F7CF10927E
:1015F0009A01DF91CF911F910F91FF9008950F9362
:101600001F93CF93DF93C62FD42F122FFC0182811B
:101610008823C9F060939D010E94A11990939C01B9
:1016200080939B0180E28C0F883008F057C0C77010
:1016300081E001C0880FCA95EAF7DF91CF911F9131
:101640000F910C945C0F80919D01681330C08091C4
:101650009B0190919C010E94B919883C910538F535
:1016600000E20D0FCD17B9F080E28C0F883040F406
:10167000C77081E001C0880FCA95EAF70E94630F26
:10168000083028F581E09D2F977001C0880F9A954A
:10169000EAF70E945C0F812F0E94490F0830F0F496
:1016A000D77081E001C0880FDA95EAF70AC080E2BE
:1016B0008C0F883098F4C77081E001C0880FCA95FC
:1016C000EAF7DF91CF911F910F910C94630F812F57
:1016D000DF91CF911F910F910C94490FDF91CF9122
:1016E0001F910F9108959C01CB01233F4CE53407D6
:1016F000F9F078F4283DFCE53F07B9F0293D4CE5C9
:10170000340711F1273D3C4531F526E241EE61EE0B
:101710001EC0253FFCE53F0799F070F0263F3C4591
:10172000D1F427E245EE66EE12C027E245EE0EC088
:1017300026E241EE60EE0BC027E245EE64EE07C004
:1017400026E241EE62EE03C028E241E065EE0E942F
:10175000FF0A80E00895FC018281882319F010922D
:101760009D01089581E00895CF93DF93EC01FB0183
:101770008281882309F41FC1C230FCE5DF0708F429
:101780001BC1C6319CE5D90738F09E012A5F3C4554
:101790002930310508F010C10E94371890932E02AD
:1017A00080932D02C031ECE5DE0709F4C3C008F0D8
:1017B00041C0C8308CE5D80709F49AC0F0F4C430B1
:1017C000ECE5DE0709F487C068F4C2308CE5D80781
:1017D00009F477C0C330DC4509F0E3C080912D02E5
:1017E000826076C0C630ECE5DE0709F46EC008F012
:1017F0007BC080912D0288606BC0CC308CE5D8070F
:1018000009F485C068F4CA30ECE5DE0709F474C059
:1018100008F079C00E941A1280912D02806858C089
:10182000CE308CE5D80709F476C008F07FC08091EF
:101830002D028BC0CB3FECE5DE0709F44FC018F555
:10184000C3318CE5D80709F47DC078F4C131ECE5EB
:10185000DE0709F473C0C231DC4509F0A2C00E9462
:101860001A1280912D028F7733C0C5318CE5D807CD
:1018700009F472C008F486C0CA3FDC4509F091C083
:1018800080912E023EC0CF3FFCE5DF0709F45FC028
:1018900058F4CD3F9CE5D90709F444C008F43FC093
:1018A00080912E0282602DC0C130FDE5DF0709F472
:1018B00075C008F45DC0C230DD4509F072C080E03B
:1018C0006EC080912D02816003C080912D028061E5
:1018D00080932D0266C080912D0211C080912E024E
:1018E000826080932E025DC080912D028062F0CFD5
:1018F00080912D028064ECCF80912D0288608460FD
:10190000E7CF8160EECF80912D028E7FE1CF809175
:101910002D028D7FDDCF80912D02877FD9CF8091E1
:101920002E0218C080912E028D7FDBCF80912D0278
:101930008F7ECECF80912D028F7DCACF80912D02D8
:101940008F7BC6CF80912D02877F8B7FC1CF809107
:101950002E028D7F8E7FC5CF80912D0282FB2227A4
:1019600020F991E0922790FB82F990FB83F9B0CFA8
:1019700080912E02982F909591708E7F892B90FBED
:1019800081F9AFCF0E941A1280912D0287FB222786
:1019900020F991E0922790FB87F99ACF81E00E948D
:1019A000C61880912D0290912E020E9448180E9424
:1019B0001A1280E001C081E0DF91CF910895CF93AA
:1019C000DF9386319C4541F5EB010E946917982F02
:1019D0008A812091000130910101882379F09A7A5F
:1019E00081E009F480E080939E01911102C069E2D8
:1019F00001C065E3C9010E940D190AC080919E01D2
:101A0000811102C069E201C065E3C9010E940F199A
:101A10000E94AA1780E001C081E0DF91CF91089574
:101A20009093A4018093A3010895E091A301F09104
:101A3000A401309721F00190F081E02D099480E01D
:101A40000895EF92FF920F931F93CF93DF93E0914E
:101A5000A301F091A4013097B1F18C010280F381D0
:101A6000E02D09958091010282FF2DC080FF04C006
:101A70008FE491E00E943506E80118E089E4E82E41
:101A800081E0F82E8091010280FF0BC088811F92B7
:101A90008F93FF92EF920E94CE060F900F900F90BF
:101AA0000F90115021961111EDCF8091010280FF0E
:101AB0000AC087E491E0DF91CF911F910F91FF90D1
:101AC000EF900C943506DF91CF911F910F91FF900D
:101AD000EF900895E091A301F091A401309739F0BF
:101AE00022E0DC012C930480F581E02D0994089517
:101AF0002091A1013091A2012817390771F090932C
:101B0000A2018093A101E091A301F091A40130977B
:101B100021F00680F781E02D0994089520919F011E
:101B20003091A0012817390771F09093A00180939C
:101B30009F01E091A301F091A401309721F000846E
:101B4000F185E02D0994089585B7806885BF85B734
:101B5000806885BF089508950C94AB0D0C94AC0D6E
:101B60000C94AB0D0C94AB0D0E94A40D0E94B00D13
:101B70000C94AE0D81E008950C94BA0D0E94981952
:101B80000E94F1090E94FF190C94B20DCF93C82F47
:101B90008091010282FF1EC080FF04C088E691E0B0
:101BA0000E9435068091010280FF0CC01F92CF93E6
:101BB00083E691E09F938F930E94CE060F900F9043
:101BC0000F900F908091010280FF04C081E691E0A8
:101BD0000E9435068C2FCF910C943807AF92BF929C
:101BE000CF92DF92EF92FF920F931F93CF93DF93E9
:101BF000CDB7DEB72A970FB6F894DEBF0FBECDBFC4
:101C00000E94420A0E94BC0D811111C08FEF89838E
:101C10008A831B820E94A1198160782F9D838C8307
:101C200049815A816B818D810E94860E40C086EA6F
:101C3000A82E81E0B82E00E010E0C02E802F0E9478
:101C40009809E82EF501D1905F01D82631F40F5F95
:101C50001F4F0330110589F7D9CF8091010281FD13
:101C60000E949E0980E0FF24F3949D2D9F21D1F0D6
:101C70008E83CF82EF2081E009F480E088870E9484
:101C8000A1198160782F9A8789874E815F81688545
:101C90008A850E94860EF801EA55FE4F8081F8265B
:101CA000F08205C08F5FFF0C8330F9F6D0CF0E9421
:101CB000131C0E94150D9091A5018917B1F00E9487
:101CC000150D8093A5012A960FB6F894DEBF0FBEBE
:101CD000CDBFDF91CF911F910F91FF90EF90DF90DB
:101CE000CF90BF90AF900C94C60D2A960FB6F89483
:101CF000DEBF0FBECDBFDF91CF911F910F91FF903F
:101D0000EF90DF90CF90BF90AF900895CF93DF9387
:101D1000CDB7DEB72B970FB6F894DEBF0FBECDBFA1
:101D20004F83588769877A878B87DE01119686E013
:101D3000FD0111928A95E9F785E0FE013796019041
:101D40000D928A95E1F749815A816B817C818D8161
:101D50009E810E94D3142B960FB6F894DEBF0FBE5F
:101D6000CDBFDF91CF910895FC01808191810E94C8
:101D70002A170895CF93882309F455C0C82F8CEFF4
:101D80008C0F813AF8F48C2F0E94232181114BC0D3
:101D90006C2F80910001909101010E94D718882337
:101DA00049F06C2F80910001909101010E940F1960
:101DB0000E94AA176C2F80910001909101010E944E
:101DC0000D190CC080E28C0F883058F4C77081E088
:101DD00001C0880FCA95EAF70E946C17CF910C9446
:101DE000AA17EBE5EC0FE33040F4F0E0E658FE4FC5
:101DF000808190E0CF910C94780DE8E5EC0FE7310D
:101E000050F4F0E0EE0FFF1FE45BFE4F8081918104
:101E1000CF910C948E0DC03F30F08C2F0E94991AF8
:101E2000CF910C94861BCF910895882389F19CEF64
:101E3000980F913A40F4682F809100019091010130
:101E40000E940F190DC090E2980F983058F48770D7
:101E500091E001C0990F8A95EAF7892F0E947217C5
:101E60000C94AA179BE5980F933020F480E090E043
:101E70000C94780D98E5980F973120F480E090E06D
:101E80000C948E0D803F20F00E94011B0C94861B49
:101E90000895CF93C82F0E94BA0EC93349F42FEF8B
:101EA00087EE93E0215080409040E1F700C00000B1
:101EB0008C2FCF910C94150F882321F00E946C1762
:101EC0000C94AA170895882321F00E9472170C948D
:101ED000AA170895CF92DF92EF92FF920F931F936C
:101EE000CF93DF937C01D62FC72FFC01058102958C
:101EF0000F70128111110E9489170E9462178823A6
:101F000099F0112389F08C2F807F803421F080E2BA
:101F10008D0F883048F082E00E94F4170E9462170B
:101F200091E0D82ED92601C0D12CCC2EC2948FE0BE
:101F3000C8228C2D90E08C30910508F0EDC1FC0199
:101F4000EA5AFF4F0C943B2A8C2F807FCF70882356
:101F500011F0C295C07F112399F0CC2309F4C8C1B8
:101F600080E28D0F883010F0D11104C08C2F0E94B8
:101F70006C1703C08C2F0E947C170E94AA17B8C14F
:101F80008D2F0E94150FCC2309F4C6C180E28D0F5E
:101F9000883010F0D11104C08C2F0E94721703C03A
:101FA0008C2F0E9482170E94AA17B6C18C2F807FA7
:101FB000CF70803211F0C295C07FDD2319F0D1308F
:101FC000C9F022C0112371F0002341F0013031F437
:101FD0000E948F178C2B0E9497179EC10E948F170B
:101FE0008C2B1DC0002319F0013009F495C10E940B
:101FF000A01725C0112321F0063008F08DC10EC0B6
:10200000053008F089C11BC0112361F0002331F0B5
:10201000F701858180FF6CC18F7085838C2F0E94B2
:102020005C0F7AC1002359F0D93309F072C1FFEF78
:1020300007EE13E0F15000401040E1F768C18C2F2B
:102040000E94630F69C18C2F86958695837019F065
:10205000813061F061C1112321F08D2F9C2F93708D
:1020600002C080E090E00E94780D5EC1112321F053
:102070008D2F9C2F937002C080E090E00E948E0D07
:1020800053C11123F9F0D53F51F0D63F71F0D43F41
:10209000A9F4809127029091280281600BC0809161
:1020A000270290912802826005C0809127029091BA
:1020B0002802846090932802809327028D2F0E942B
:1020C000991A1EC0D53F51F0D63F71F0D43FA9F404
:1020D00080912702909128028E7F0BC08091270269
:1020E000909128028D7F05C080912702909128024F
:1020F0008B7F90932802809327028D2F0E94011BD3
:102100000E94861B11C18C2F837009F047C01111EA
:1021100007C12D2F229526952770220F220F6D2F94
:102120006F70862F90E0A0E0B0E0022E04C0880F10
:10213000991FAA1FBB1F0A94D2F7D4FF10C04FE00B
:1021400050E060E070E004C0440F551F661F771F29
:102150002A95D2F7409550956095709503C040E060
:1021600050E0BA01C695C695C3708A019B01082B41
:10217000192B2A2B3B2BC901B801C23049F058F466
:10218000C13019F00E94A715CBC00E949515C8C098
:102190000E94B915C5C00E949315C2C0112319F041
:1021A0008C2F817001C08695882309F4B9C02D2F2A
:1021B000229526952770220F220F6D2F6F70862F84
:1021C00090E0A0E0B0E0022E04C0880F991FAA1F83
:1021D000BB1F0A94D2F7D4FF10C04FE050E060E07C
:1021E00070E004C0440F551F661F771F2A95D2F771
:1021F000409550956095709503C040E050E0BA015D
:10220000C695C695C3708A019B01082B192B2A2BF2
:102210003B2BC901B801C23049F058F4C13019F064
:102220000E946C167DC00E945A167AC00E947E16CB
:1022300077C00E94CD1574C0CF70112339F08C2F58
:102240000E94F3158D2F0E945C0F6AC08D2F0E9493
:10225000630F8C2F0E94141663C0D23F01F128F443
:10226000D03F41F0D13FA1F03FC0D33FF9F0D43F80
:1022700039F13AC0112341F0053008F04DC08C2FE0
:102280008F710E94391648C0063008F045C0F7CF5C
:10229000112339F08C2F8F710E94F3153DC011234B
:1022A000C9F38C2F8F710E94141636C0112329F0A8
:1022B0008C2F8F710E94DE152FC00E94D9152CC063
:1022C000112349F0CF718C2F0E94F31563E08C2FFE
:1022D0000E94DF1721C081E00E94F4170230E0F075
:1022E00082E00E94F41718C0112331F0002391F20C
:1022F0008D2F0E94BA0E10C0002399F2D93349F4F1
:102300001FEF27EE33E0115020403040E1F700C0CE
:1023100000008D2F0E94150F88EF8C0D843020F463
:102320000E94150D0E943807DD20C9F00E945E173B
:1023300080FD15C0F70112820E9458170E94F31504
:10234000C7010E94D0110E945817DF91CF911F91B1
:102350000F91FF90EF90DF90CF900C941416DF91C7
:10236000CF911F910F91FF90EF90DF90CF90089544
:102370000F931F93CF93DF93EC01688179818A815A
:102380000E9435178C010E9490160E948115B80199
:10239000CE010E946A0FDF91CF911F910F91089596
:1023A000CF93DF93EC01988189812B813C81232B92
:1023B00031F08F3F31F481E09F3F19F403C081E099
:1023C00001C080E080FD19C0CE010E94510781113B
:1023D0000CC00E946217882381F08A81882369F0EB
:1023E00082E0DF91CF910C94F417CE010E94B811D6
:1023F000CE01DF91CF910C941C07DF91CF9108950E
:102400000E9489170E948C170E94AA170E94321DF1
:102410000E94861B80E090E00E94780D80E090E0B2
:102420000C948E0D80910001909101010E94111970
:102430000C9400120E9479170C941212E92FE29565
:10244000EF704E2F50E0FA013297EE30F105B0F404
:10245000EE59FF4F0C943B2A803F91F018F4883ED0
:1024600068F40EC0843F51F40BC0883E48F0813FB1
:1024700029F406C093FB882780F9089580E0089529
:1024800081E008950E942A170E941E120895CF939A
:10249000DF9300D000D01F92CDB7DEB70F900F9022
:1024A0000F900F900F90DF91CF910895CF93DF930E
:1024B00000D000D000D0CDB7DEB726960FB6F89486
:1024C000DEBF0FBECDBFDF91CF9108951F93CF9395
:1024D000DF93C091AA0116E08091AB01C81799F073
:1024E000D0E01C9FF0011D9FF00D1124E455FE4F1C
:1024F0004081518162817381848195810E9456124D
:102500002196C770E9CFDF91CF911F910895409137
:10251000DC015091DD016091DE017091DF0180915D
:10252000E0019091E1010C9456120F931F93CF9309
:10253000DF938091E10182958F7009F05DC08091F9
:10254000DE01882309F458C08091AA011091AB01E3
:102550006091DC017091DD01C091DF01D091E0015B
:1025600091E06F3F09F090E0292F06E0811709F410
:1025700043C0209721F07F3F21F030E003C031E0DD
:1025800001C0322F90E030FD34C0089FF001099F58
:10259000F00D1124DF01A455BE4F11963C91119707
:1025A000371327C03C91361324C012963C911297E2
:1025B00031111FC013964D915C9114974C1B5D0B0C
:1025C000483C5105B0F48091E1018F7080618093A7
:1025D000E101EF54FE4F80818F70806180838CED2C
:1025E00091E00E94D011DF91CF911F910F910C9437
:1025F000661201968770BACFDF91CF911F910F912C
:1026000008959F92AF92BF92CF92DF92EF92FF9286
:102610000F931F93CF93DF93CDB7DEB761970FB6BC
:10262000F894DEBF0FBECDBF8C0185E0F801DE015E
:102630001D9601900D928A95E1F7F8014081518134
:10264000E2809091DC016091DD012091DF01309109
:10265000E0012115310531F06F3F31F481E09F3FFA
:1026600019F403C081E001C080E0F82FF1709F2EC3
:1026700080FD46C1F801A380B4808CEDC82E81E0B6
:10268000D82EF090DE01F501E21BF30BFF2009F4D8
:10269000DFC08091E101E83CF10508F09BC0282FE4
:1026A000207F09F052C0561313C0491311C0FE2CED
:1026B000E1100EC08F7080618093E1010E9487124B
:1026C000C6010E94D0118091E101F801858358C1B3
:1026D000AB2831F05F3F31F481E04F3F19F403C084
:1026E00081E001C080E080FD03C081E08E2502C052
:1026F00080E090E0F82FF170FF2E80FF1CC08091E9
:10270000AA012091AB0136E0821709F417C190E0CD
:10271000389FF001399FF00D1124E455FE4F61817F
:10272000561306C06081461303C06281E61203C0DF
:1027300001968770E9CFFE2CEE2009F421C180912B
:10274000E10181608093E1015AC0561306C049132C
:1027500004C0E11002C0F8019FC04D875E878D85DF
:102760009E850E944212882379F1EE2069F1209122
:10277000E101822F82958F7090E0029774F0809132
:10278000DC019091DD0198878F831986BB86AA862C
:102790002C87CE0107960E94D01186E0F801ACED9F
:1027A000B1E001900D928A95E1F70E9495120E9486
:1027B00087120DC0561729F14D875E878D859E853E
:1027C0000E94421281112CC0C8010E94D011FF2426
:1027D000F394D6C0282F207F69F77A2DB98AA88A6A
:1027E0006E2D89890E9447128CED91E00E94D011D4
:1027F00086E0F60111928A95E9F70E948712F12C82
:10280000BFC04913D9CFE110D7CFF8018583C801E4
:102810000E94D01186E0F60111928A95E9F7B0C0C6
:10282000EE2091F22091E101822F82958F7090E04D
:1028300002970CF4B2CF8091DC019091DD019A8374
:1028400089831B82BD82AC822E83CE010196A3CFE9
:10285000E83CF10508F047C0FE2CEE2009F4B4CFA7
:10286000561330C049132EC02091E10120FD21C034
:10287000822F82958F70482F50E041155105C9F085
:10288000F80125834F30510541F08F5F982F9295C5
:10289000907F822F8F70892B8583C8010E94D01171
:1028A00086E0F801ACEDB1E001900D928A95E1F778
:1028B00042C086E0F801ACEDB1E001900D928A953E
:1028C000E1F75EC04D875E878D859E850E9442122E
:1028D000811163CF8091E10181608093E101C801A2
:1028E0000E94D0114DC07A2DB98AA88A6E2D89898F
:1028F0000E94471286E0F60111928A95E9F71BC003
:10290000EE2009F461CF4D875E878D859E850E94FC
:102910004212F82E882309F457CF86E0F801ACED77
:10292000B1E001900D928A95E1F78CED91E00E9463
:10293000B40E0E9495120E94871222C04D875E87B6
:102940008D859E850E942A17292F22952F7022306F
:1029500028F49F7039F0811105C00BC0243028F491
:102960009F7049F4805E883020F0C8010E94D01129
:102970009F2CF92C05C0F8019581907F99F7F9CF2C
:102980008F2D61960FB6F894DEBF0FBECDBFDF91DD
:10299000CF911F910F91FF90EF90DF90CF90BF905C
:1029A000AF909F9008951F93CF93DF93CDB7DEB77D
:1029B0002C970FB6F894DEBF0FBECDBF4F8358875C
:1029C00069877A878B879C87CE0107960E940113BF
:1029D0008823D1F09F8188852A853B85232B31F080
:1029E0008F3F31F481E09F3F19F403C081E001C0C3
:1029F00080E080FD47C04F81588569857A858B8549
:102A00009C850E9456123EC086E0FE013796DE018C
:102A1000119601900D928A95E1F7FF81E8856A850C
:102A20007B856115710531F0EF3F31F481E0FF3FA7
:102A300019F403C081E001C080E080FD23C0209133
:102A4000AB0130E0C9010196877099274091AA0136
:102A500050E084179507F1F1F983EA837D836C8355
:102A600096E0929FD001939FB00D1124A455BE4FC4
:102A7000FE01319601900D929A95E1F78093AB019A
:102A80000E94661216E08091AA019091AB0189170D
:102A900071F1189FC001112484559E4F0E940113AB
:102AA000882329F1E091AA011E9FF0011124E45529
:102AB000FE4F4081518162817381848195810E94A2
:102AC00056128091AA0190E0019687709927809311
:102AD000AA01D9CF0E941A121092AB011092AA013A
:102AE000ECEDF1E086E0DF011D928A95E9F72C9686
:102AF0000FB6F894DEBF0FBECDBFDF91CF911F910F
:102B00000895089508950C9482150C9483150E94DD
:102B100085156093F0017093F1018093F201909319
:102B2000F3010C9400120C9487150F931F930091DE
:102B3000F0011091F1012091F2013091F301602B2D
:102B4000712B822B932B1F910F910C9487150F9350
:102B50001F930091F0011091F1012091F201309149
:102B6000F30160237123822393231F910F910C940F
:102B700087150F931F930091F0011091F10120919F
:102B8000F2013091F30160277127822793271F916B
:102B90000F910C9487150C9482150E94CB156093AD
:102BA000EC017093ED018093EE019093EF010C9492
:102BB000001260E070E0CB010C94CD150F931F93D1
:102BC00041E050E060E070E08A019B0104C0000F2A
:102BD000111F221F331F8A95D2F7C901B8011F9117
:102BE0000F910C94CD150F931F9341E050E060E0DE
:102BF00070E004C0440F551F661F771F8A95D2F7F7
:102C00008091EC019091ED01A091EE01B091EF0166
:102C10008A019B01082B192B2A2B3B2BC901B801D8
:102C20001F910F910C94CD150F931F9341E050E02D
:102C300060E070E004C0440F551F661F771F8A953F
:102C4000D2F740955095609570958091EC019091E8
:102C5000ED01A091EE01B091EF018A019B010823E3
:102C600019232A233B23C901B8011F910F910C940A
:102C7000CD150F931F9341E050E060E070E004C079
:102C8000440F551F661F771F8A95D2F78091EC017C
:102C90009091ED01A091EE01B091EF018A019B01AD
:102CA000082719272A273B27C901B8011F910F912F
:102CB0000C94CD150F931F930091EC011091ED0131
:102CC0002091EE013091EF01602B712B822B932B21
:102CD0001F910F910C94CD150F931F930091EC0150
:102CE0001091ED012091EE013091EF0160237123ED
:102CF000822393231F910F910C94CD150F931F9353
:102D00000091EC011091ED012091EE013091EF0165
:102D100060277127822793271F910F910C94CD155F
:102D20000895292F220F920F890FE82FE695E69537
:102D3000E695877051E001C0550F8A95EAF785E066
:102D4000E89FF0011124EE51FE4F20E030E070E0EA
:102D50004081CB01022E02C0969587950A94E2F736
:102D60008170819584278523842781932F5F3F4F2E
:102D70002530310569F70895292F220F920F890F09
:102D8000682F669566956695982F977085E0689F81
:102D9000B001112440E050E080E0FB01E40FF51F9A
:102DA000EE51FE4F208130E0092E02C03695279566
:102DB0000A94E2F721703327042E01C0220F0A94EF
:102DC000EAF7822B4F5F5F4F4530510531F7089589
:102DD000BF92CF92DF92EF92FF920F931F93CF9308
:102DE000DF938C01C090EC01D090ED01E090EE01FA
:102DF000F090EF018091F0019091F101A091F2012A
:102E0000B091F301C82AD92AEA2AFB2ACFE1D0E0FF
:102E1000D701C6010C2E04C0B695A7959795879546
:102E20000A94D2F780FD04C0219790F7B12C07C017
:102E3000BC2EB8018C2F0E94BF070197A9F38B2DE0
:102E4000DF91CF911F910F91FF90EF90DF90CF9086
:102E5000BF900895CF93DF93EC010E94E816BE0166
:102E60000E94BF07DF91CF9108951F93CF93DF9307
:102E7000EB019091A901992321F0CB010E942A171F
:102E800013C0882349F0CB010E94E816182F682F41
:102E9000CE010E94911604C0CB010E94BC16182FCF
:102EA000BE01812F0E94BF07DF91CF911F9108952E
:102EB0008091F40185958595859508958091F4011B
:102EC000877008959091F401977081E009F480E093
:102ED000089580910002089590910002892B8093BB
:102EE000000208958095909100028923809300024A
:102EF00008951092000208959091FF01892B80930C
:102F0000FF01089580959091FF0189238093FF012F
:102F100008951092FF0108951092FE010895809186
:102F2000F501089508950C9492170C9493179091BD
:102F3000F501981721F08093F5010C9495170895E9
:102F40008091F501882329F01092F50180E00C941E
:102F500095170895E0910001F09101018091000220
:102F60008083E0910001F091010190818091FF0147
:102F7000892B8083E0910001F09101019081809183
:102F8000FE01892B80838091F501882381F0E091F7
:102F90000001F09101019081892B808380910001D3
:102FA000909101010E94CB1881110E94A01780917D
:102FB0000001909101010C94210D0C94921798E05E
:102FC000899F90011124262B2093F4010E94F31570
:102FD0008091F4018595859585950C94DD17109267
:102FE000F40180E00C94DD172091F4018095822398
:102FF0008093F401982F977079F430E0482F082ED1
:10300000000C550B2417350739F085958595859566
:103010000E9414160C94EF170895909397018093D3
:10302000960108958295982F937344E0949F9001A0
:1030300011248C7C86958695282B822F8575880F88
:103040002A7A2695822B089580E090E00E945D2ADE
:1030500021E08C3E9E4F09F020E0822F089582E00F
:1030600090E00C94552A83E090E00C94552ACF937D
:1030700084E090E00E94552AC82F81E290E00E94EF
:10308000552A2C2F30E0A901582BCA01CF91089561
:10309000CF93C92F682F84E090E00E94632A6C2FA1
:1030A00081E290E0CF910C94632AAB01BC018FE0E8
:1030B00090E00C94752AAB01BC0183E190E00C9484
:1030C000752A60E070E0CB010C945B1860E070E062
:1030D000CB010E9455180C9461186CEE7EEF80E0D5
:1030E00090E00E94812A60E082E090E00E94632AE2
:1030F00060E083E090E00E94632A1092F001109259
:10310000F1011092F2011092F30160E084E090E08E
:103110000E94632A60E081E290E00E94632A60E0FE
:1031200085E090E00E94632A60E086E090E00E94E3
:10313000632A6FEF87E090E00E94632A40E050E04E
:10314000BA0188E090E00E94752A60E08DE090E08E
:103150000E94632A40E050E0BA0188E190E00E94BA
:10316000752A60E087E190E00E94632A40E050E029
:10317000BA018CE190E00E94752A60E080E290E064
:103180000E94632A0C9466180C946D18682F8EE0C8
:1031900090E00C94632AFC01329697E080E0915015
:1031A00029F021912223D9F38F5FF9CF0895662367
:1031B00049F0FC01329608962191621729F0E81730
:1031C000F907D1F780E0089581E008959C01FC01A2
:1031D00032969FEF80E04191461789F09F3F19F4A6
:1031E000411101C0982F8F5F8630A9F79F3F39F0BA
:1031F000F901E90FF11D97FDFA956283089508958D
:103200009C012A5F3F4FFC014281461301C012829C
:10321000019682179307B9F708950C94E6180C9459
:103220000019029626E0FC0111922A95E9F708950B
:1032300008950C9418190C941819CF930E941B1917
:103240000E94420A0E941919C0E08C2F0E9498091E
:10325000811104C0CF5FC330C1F701C081E0CF91BD
:1032600008950C9418190C9431190E943319809107
:103270003302843049F11092020220E488E190E0A8
:103280000FB6F894A895809360000FBE209360005D
:1032900080E00E9438070E94331983B7817F8460E1
:1032A00083BF83B7816083BF7894889583B78E7F0F
:1032B00083BF0FB6F894A8958091600088618093D1
:1032C0006000109260000FBE08950C9418190E94BF
:1032D0001A120E94150D0E9438070C9465191F924E
:1032E0000F920FB60F9211248F939F93AF93BF93BA
:1032F00080910202811113C08091290290912A02CB
:10330000A0912B02B0912C024196A11DB11D80937A
:10331000290290932A02A0932B02B0932C02BF9112
:10332000AF919F918F910F900FBE0F901F901895A6
:1033300082E084BD93E095BD9AEF97BD80936E00C7
:1033400008952FB7F8948091290290912A02A091B4
:103350002B02B0912C022FBF08952FB7F8946091E3
:10336000290270912A0280912B0290912C022FBF8A
:1033700008959C014FB7F8948091290290912A02F8
:10338000A0912B02B0912C024FBF821B930B08958A
:1033900078941F920F920FB60F9211248F939F93E0
:1033A000AF93BF938091290290912A02A0912B02A2
:1033B000B0912C020196A11DB11D8093290290931A
:1033C0002A02A0932B02B0932C02BF91AF919F9140
:1033D0008F910F900FBE0F901F90189587E797E77A
:1033E00090930108809300089AE088E10FB6F89462
:1033F000A895809360000FBE90936000FFCF0E945D
:103400002418811102C00E94C4180E942F188093B2
:1034100001020E94371890932E0280932D020E9481
:103420003318682F70E080E090E00C949315809141
:103430000A0280FF0BC06091070185E0689FB00120
:10344000112475956795759567952BC081FF09C007
:103450006091070185E0689FB0011124759567951B
:1034600020C082FF07C06091070185E0689FB0011E
:10347000112417C0909109029923D1F0609106019F
:10348000961788F72091070185E0289F9001112465
:10349000929FA001939F500D112470E0CA010E94D9
:1034A000272A6038710540F46115710519F406C0CA
:1034B00065E070E0862F08958FE7089581E0089514
:1034C00080910A0280FF08C06091030170E0759549
:1034D00067957595679521C081FF06C060910301CE
:1034E00070E07595679519C082FF04C06091030173
:1034F00070E010C090910902992399F06091020147
:103500009617A0F780910301899FC001112470E0F4
:103510000E94272A6038710540F46115710519F47D
:1035200006C061E070E0862F08958FE7089581E07E
:103530000895803F21F40E94171A819504C0813FAD
:1035400029F40E94171A80930E020895823F21F4F5
:103550000E94171A819504C0833F29F40E94171A0C
:1035600080930D020895893F19F40E94601A05C0E6
:103570008A3F31F40E94601A819580930F0208956A
:103580008B3F21F40E94601A819504C08C3F29F47E
:103590000E94601A809310020895843F21F4809164
:1035A0000C02816017C0853F21F480910C0282607B
:1035B00011C0863F21F480910C0284600BC0873FCC
:1035C00021F480910C02886005C0883F31F480911D
:1035D0000C02806180930C0208958D3F21F480914C
:1035E0000A0281600BC08E3F21F480910A02826042
:1035F00005C08F3F29F480910A02846080930A02FB
:103600000895803F39F480910E0287FF6CC01092BC
:103610000E0269C0813F29F480910E021816BCF396
:1036200062C090910D02823F29F497FF5CC0109216
:103630000D0259C0833F19F41916CCF354C0893FC9
:1036400041F480910F0218160CF04DC010920F0239
:103650004AC08A3F29F480910F0287FF44C0F6CF09
:103660008B3F39F48091100287FF3DC01092100209
:103670003AC08C3F29F4809110021816BCF333C075
:10368000843F21F480910C028E7F17C0853F21F486
:1036900080910C028D7F11C0863F21F480910C0235
:1036A0008B7F0BC0873F21F480910C02877F05C080
:1036B000883F31F480910C028F7E80930C0213C0FE
:1036C0008D3F21F480910A028E7F0BC08E3F21F442
:1036D00080910A028D7F05C08F3F29F480910A02F4
:1036E0008B7F80930A0280910D0281110EC0809120
:1036F0000E0281110AC080910F02811106C08091D3
:103700001002811102C010920902089580910102F5
:1037100083FF7EC082EA91E00E94350680910C0210
:103720001F928F938DE991E09F938F930E94CE0615
:103730008BE991E00E94350680910D02282F082E1A
:10374000000C330B3F938F9388E991E09F938F9305
:103750000E94CE0686E991E00E94350680910E0215
:10376000282F082E000C330B3F938F9383E991E0B1
:103770009F938F930E94CE0681E991E00E943506C7
:1037800080910F02282F082E000C330B3F938F934C
:103790008EE891E09F938F930E94CE068CE891E093
:1037A0000E94350680911002282F082E000C330B42
:1037B0003F938F9389E891E09F938F930E94CE0669
:1037C00086E891E00E943506809109021F928F934E
:1037D00083E891E09F938F930E94CE0681E891E069
:1037E0000E94350680910A021F928F938EE791E026
:1037F0009F938F930E94CE068BE791E00E9435063F
:103800008DB79EB74C960FB6F8949EBF0FBE8DBF76
:103810008BE092E00E946A0D0E94A1199093080229
:10382000809307020895CF93DF9300D000D000D09B
:10383000CDB7DEB786E0EBE0F2E0DE011196019055
:103840000D928A95E1F780910D02811105C080915A
:103850000E02882309F47AC0809105029091060235
:103860000E94B919AC0190910902992339F0209175
:10387000080130E02417350758F068C0209109018D
:103880008AE0289F900111242417350718F05EC0A4
:103890009F3F19F09F5F9093090210920F021092C0
:1038A000100280910D02181624F40E94171A8093BA
:1038B0000D0280910D0287FF05C00E94171A8195A5
:1038C00080930D0280910E02181624F40E94171A9C
:1038D00080930E0280910E0287FF05C00E94171A86
:1038E000819580930E0230910D023323E1F02091F7
:1038F0000E022223C1F045EB3403C00111249923A9
:1039000019F090930D0203C081E080930D0235EB16
:103910002303C0011124992319F090930E0203C0D0
:1039200081E080930E020E94861B80910702909195
:103930000802909306028093050286E0FE0131960C
:10394000ABE0B2E001900D928A95E1F780910F0211
:10395000811105C080911002882309F47AC08091FA
:103960000302909104020E94B919AC0190910902DE
:10397000992339F02091040130E02417350758F0DD
:1039800068C0209105018AE0289F90011124241726
:10399000350718F05EC09F3F19F09F5F90930902B2
:1039A00010920D0210920E0280910F02181624F44C
:1039B0000E94601A80930F0280910F0287FF05C05A
:1039C0000E94601A819580930F0280911002181650
:1039D00024F40E94601A809310028091100287FFE5
:1039E00005C00E94601A81958093100230910F02E9
:1039F0003323E1F0209110022223C1F045EB340380
:103A0000C0011124992319F090930F0203C081E0A3
:103A100080930F0235EB2303C0011124992319F081
:103A20009093100203C081E0809310020E94861BD5
:103A30008091070290910802909304028093030200
:103A400086E0FE013196ABE0B2E001900D928A95DE
:103A5000E1F726960FB6F894DEBF0FBECDBFDF911B
:103A6000CF910895EBE0F2E086E0DF011D928A95A8
:103A7000E9F71092090210920A02089585EC93E08A
:103A80000E9435061F9281E08F931F9285E08F93ED
:103A900087E793E09F938F930E94CE060F900F903D
:103AA0000F900F900F900F9008958330E9F128F454
:103AB000813061F0823009F10895853009F462C0E7
:103AC00008F449C0863009F474C008958091090152
:103AD000262F30E0280F311D2F3F310524F4680FC9
:103AE0006093090103C08FEF809309018091090160
:103AF0001F928F9380EB92E072C080910801262F75
:103B000030E0280F311D2F3F310524F4680F6093FA
:103B1000080103C08FEF80930801809108011F9274
:103B20008F938EE992E05BC080910701262F30E0F1
:103B3000280F311D2F3F310524F4680F60930701D2
:103B400003C08FEF80930701809107011F928F932D
:103B50008BE892E044C080910601262F30E0280FC8
:103B6000311D2F3F310524F4680F6093060103C017
:103B70008FEF80930601809106011F928F9386E755
:103B800092E02DC080910301262F30E0280F311DD7
:103B90002F3F310524F4680F6093030103C08FEFBA
:103BA00080930301809103011F928F938DE592E032
:103BB00016C080910201262F30E0280F311D2F3FC3
:103BC000310524F4680F6093020103C08FEF8093E6
:103BD0000201809102011F928F9382E492E09F93F1
:103BE0008F930E94CE060F900F900F900F90089524
:103BF000833081F128F4813059F08230D1F008957A
:103C0000853009F449C0B8F1863009F456C00895EA
:103C100080910901681720F4861B8093090102C076
:103C200010920901809109011F928F9383E392E022
:103C300054C080910801681720F4861B8093080106
:103C400002C010920801809108011F928F9381E2B7
:103C500092E043C080910701681720F4861B80938F
:103C6000070102C010920701809107011F928F93F4
:103C70008EE092E032C080910601681720F4861B26
:103C80008093060102C010920601809106011F92E6
:103C90008F9389EF91E021C080910301681720F490
:103CA000861B8093030102C01092030180910301DF
:103CB0001F928F9380EE91E010C0809102016817EF
:103CC00020F4861B8093020102C0109202018091B1
:103CD00002011F928F9385EC91E09F938F930E9436
:103CE000CE060F900F900F900F900895CF93C82F8E
:103CF0001F928F938AEC94E09F938F930E94CE063D
:103D000081E090E0A0E0B0E0BC01CD0104C0660F0E
:103D1000771F881F991FCA95D2F70E9493150F909D
:103D20000F900F900F90CF910C941A12CF93DF93B6
:103D30008B3109F4EEC108F08FC18B3009F4B2C1A8
:103D400008F065C1863009F4B0C120F4853009F46B
:103D5000BEC161C2873009F4C1C1883009F05BC2BD
:103D600088E09AE00E94350689E599E00E943506D0
:103D70000E9433181F928F9386E599E09F938F934B
:103D80000E94CE0684E599E00E9435060E942F1815
:103D9000C82F81E499E00E9435061F92CF938CE3EF
:103DA00099E09F938F930E94CE068AE399E00E9448
:103DB000350680E399E00E9435068C2F81701F92B2
:103DC0008F938DE299E09F938F930E94CE068BE2B2
:103DD00099E00E94350681E299E00E943506C1FB18
:103DE000882780F91F928F938EE199E09F938F939C
:103DF0000E94CE068CE199E00E94350680E199E0B0
:103E00000E943506C2FB882780F91F928F938DE0B0
:103E100099E09F938F930E94CE068BE099E00E94D9
:103E2000350682E099E00E943506C3FBCC27C0F935
:103E30001F92CF938FEF98E09F938F930E94CE06AF
:103E40008DEF98E00E9435060E943718EC0189EE4C
:103E500098E00E943506DF93CF9384EE98E09F931D
:103E60008F930E94CE0682EE98E00E94350689EC80
:103E700098E00E9435068C2F81701F928F9386ECFC
:103E800098E09F938F930E94CE068DB79EB7809641
:103E90000FB6F8949EBF0FBE8DBF84EC98E00E94D1
:103EA00035068DEA98E00E943506C1FB882780F927
:103EB0001F928F938AEA98E09F938F930E94CE0679
:103EC00088EA98E00E94350686E998E00E94350667
:103ED0008D2F81701F928F9383E998E09F938F932A
:103EE0000E94CE0681E998E00E9435068FE798E0AF
:103EF0000E943506D695D1701F92DF938CE798E02B
:103F00009F938F930E94CE068AE798E00E94350621
:103F100088E698E00E943506C2FB882780F91F9248
:103F20008F9385E698E09F938F930E94CE0683E659
:103F300098E00E94350681E598E00E943506C3FBB3
:103F4000882780F91F928F938EE498E09F938F9338
:103F50000E94CE068CE498E00E94350682E498E048
:103F60000E943506C4FB882780F91F928F938FE348
:103F700098E09F938F930E94CE068DE398E00E9475
:103F800035068BE298E00E943506C5FB882780F94C
:103F90001F928F9388E298E09F938F930E94CE06A2
:103FA00086E298E00E9435068AE098E00E94350695
:103FB000C6FB882780F91F928F9387E098E09F9334
:103FC0008F930E94CE068DB79EB780960FB6F89459
:103FD0009EBF0FBE8DBF85E098E00E9435068DEF35
:103FE00097E00E943506C7FBCC27C0F91F92CF93FC
:103FF0008AEF97E09F938F930E94CE0688EF97E019
:104000000E9435060F900F900F900F9049C080319D
:1040100009F4A9C020F48E3009F48FC0FCC08631A9
:1040200009F4BCC0893109F0F6C08FE196E00E9426
:10403000350686E096E00E9435068CEC95E00E94FD
:10404000350689E995E00E94350683E695E00E94F1
:10405000350688E395E084C08A32E1F060F4873267
:1040600009F4D5C028F48E3108F4D5C08D51D0C0E4
:10407000893269F1D0C0833448F48A3308F0C5C06E
:10408000853309F4C4C0883369F0C5C0833409F4AA
:10409000BEC0C1C087EF99E00E9435060E94C418D7
:1040A000C1E0BEC085E596E05BC080910102817FE2
:1040B0008E7F809301028EE296E00E94350683EFA8
:1040C00099E00E94350681E080931202E9CF87EDE6
:1040D00099E00E9435060E944207E2CF80910102DA
:1040E000C82FC095C170C0FB80F980930102CC231A
:1040F00029F08BEC99E00E94350692C08EEB99E096
:104100000E94350680910102897F877F809301029A
:10411000C7CF9091010291FBCC27C0F981E0C8275D
:10412000892FC0FB81F980930102CC2319F081EB28
:1041300099E029C083EA99E013C09091010292FBB3
:10414000CC27C0F981E0C827892FC0FB82F9809372
:104150000102CC2319F084E999E015C084E899E0C4
:104160000E9435069DCF9091010293FBCC27C0F9A8
:1041700081E0C827892FC0FB83F980930102CC23FB
:1041800051F088E799E00E94350680910102816034
:104190008093010245C08BE699E0E2CF8AE295E088
:1041A0000E9435060E94150D1F928F9380E195E0C5
:1041B0009F938F930E94CE06809114011F928F933C
:1041C00089EF94E09F938F930E94CE0680911F0207
:1041D0001F928F9386EE94E09F938F930E94CE065A
:1041E0000E94AD199F938F937F936F938FEC94E010
:1041F0009F938F930E94CE068DB79EB742960FB6BF
:10420000F8949EBF0FBE8DBF4BCF895301C080E095
:104210000E94761E45CF89E699E00E943506C0E0EF
:104220008C2FDF91CF91089580E008950C94142194
:104230008E518A3030F4E82FF0E0E358FE4F808151
:10424000089580E00895CF93C82F809112028130A5
:1042500059F020F0823009F445C039C10E94691735
:10426000823209F036C104C00E946917823261F4BB
:104270008C2F0E941621811104C08C2F0E94961E43
:104280002FC081E090E02CC08C2F0E94142181115E
:1042900026C0C431E1F070F4CB3081F0C031D1F4EC
:1042A0000E943E1D82EC94E00E94350682E08093DD
:1042B000120215C0C93259F0C83361F48EE296E09B
:1042C0000E94350686EC94E00E94350608C01092E4
:1042D000120201C180EC94E00E943506FCC081E02E
:1042E0008170FBC0C43228F5CE3108F0C1C0CB309C
:1042F000A1F1D0F4C73009F0D0C08EE1809309015C
:1043000082E3809308018AE08093070184E180932F
:10431000060188E08093030188E28093020186E62B
:1043200093E00E943506BCC0C33149F1C431C1F0ED
:10433000B4C0CB3409F4A6C028F4C93289F0C8331C
:1043400061F0ABC0C13509F49BC0C23509F496C019
:10435000CE3409F0A2C06AE09BC00E943E1DA0C0FE
:1043600080911102882319F01092110299C083E7FD
:1043700093E00E94350681E080931202AEC08DE486
:1043800093E00E9435068BE393E00E94350680910E
:1043900009011F928F9388E393E09F938F930E946C
:1043A000CE0686E393E00E94350684E293E00E9405
:1043B0003506809108011F928F9381E293E09F93CD
:1043C0008F930E94CE068FE193E00E94350680E134
:1043D00093E00E943506809107011F928F938DE034
:1043E00093E09F938F930E94CE068BE093E00E9410
:1043F00035068AEF92E00E943506809106011F92F1
:104400008F9387EF92E09F938F930E94CE0685EF64
:1044100092E00E94350680EE92E00E94350680917F
:1044200003011F928F938DED92E09F938F930E94D3
:10443000CE068BED92E00E94350684EC92E00E945D
:104440003506809102011F928F9381EC92E09F9339
:104450008F930E94CE068FEB92E00E9435068DB7B7
:104460009EB748960FB6F8949EBF0FBE8DBF18C07A
:104470008C2F0E9418218093110212C061E003C0AA
:1044800061E006C06AE0809111020E94551D08C0DB
:10449000809111020E94F81D03C084E693E013C0CE
:1044A00080911102882369F01F928F938EE593E02B
:1044B0009F938F930E94CE060F900F900F900F90B6
:1044C00004C08BE593E00E94350681E006C010929F
:1044D000120280E002C080E003CFCF910895809166
:1044E0001E0208959FB7F894109215029FBF9091F5
:1044F0003302943009F057C09091E9009F703091D9
:10450000EC00232F217030FD20E8922B23E0209334
:10451000E9002091EB0020FF43C02091EE0027FF2F
:104520003FC020911302222321F02091E80025FFB3
:1045300037C01092130226E03091E80035FD15C017
:1045400030913302343061F53091EB0035FD28C0F5
:10455000215021F481E08093130222C0EFE9FFE0B3
:104560003197F1F700C00000E7CF8093F100809110
:10457000E80085FD0AC08091E80080FFFCCF8091B3
:10458000E8008E778093E80006C08FB7F89421E0AA
:10459000209315028FBF9F709093E90080E00895EB
:1045A0009F709093E9008FEF0895CF93DF9300D031
:1045B0001F92CDB7DEB790913302943019F58983FD
:1045C0007B836A8382E08093E9008FEF9091E8001B
:1045D000815095FD06C095ED9A95F1F70000811187
:1045E000F5CF8091E80085FF0DC040E050E063E02A
:1045F00070E0CE0101960E947E258091E8008E77C2
:104600008093E8000F900F900F90DF91CF91089565
:10461000CF93DF93EC010E946125823011F084304A
:1046200031F4BE0184E0DF91CF910C94D522DF916B
:10463000CF910895BC0183E00C94D522CF93DF93F2
:10464000EC010E946125823011F08430F9F482E09F
:104650008093E9008FEF9091E800815095FD06C0AE
:1046600095ED9A95F1F700008111F5CF8091E80062
:1046700085FF0CC040E050E066E070E0CE010E9493
:104680007E258091E8008E778093E800DF91CF91BE
:104690000895CF93DF93EC010E946125823011F0E1
:1046A000843039F581E08093E9008FEF9091E80044
:1046B000815095FD06C095ED9A95F1F700008111A6
:1046C000F5CF8091E80085FF14C040E050E068E03D
:1046D00070E0CE010E947E258091E8008E77809365
:1046E000E80088E0FE01A6E1B2E001900D928A9513
:1046F000E1F7DF91CF91089588E39AE00E943506B3
:1047000080913202811109C00E940F270E946C27FC
:104710008091E20084608093E200089584E39AE04F
:104720000E94350610923202089580E39AE00C94BC
:1047300035068CE29AE00C94350688E29AE00E94F5
:1047400035060C946719209114022F5F822F62E3C3
:104750000E941B2A992319F02093140208951092A5
:10476000140280911502882371F180913302843004
:1047700041F58091E9008F702091EC00922F9170AB
:1047800020FD90E8892B93E09093E9009091EB0055
:1047900090FF14C09091EE0097FF10C09091E80038
:1047A00095FF03C01092F100F9CF9091E80090FFBF
:1047B00005C09091E8009E779093E8008F708093F9
:1047C000E90010921502089542E061EC81E00E9438
:1047D000882642E261EC82E00E94882642E261EC97
:1047E00083E00C94882680913502833009F460C000
:1047F00030F4813071F0823009F499C008958A3024
:1048000009F485C08B3009F46BC0893009F0A7C06A
:1048100020C080913402813A09F0A1C08091E80063
:10482000877F8093E8008091380290913902892B2C
:1048300021F468E086E192E003C060E080E090E06F
:1048400070E00E94C9258091E8008B778093E80092
:10485000089580913402813209F081C0809138023C
:1048600090913902029708F07AC08091E800877F22
:104870008093E8008091E80082FD05C080913302BA
:104880008111F8CF6CC02091F3008091F20090E08C
:10489000922B029729F48091F1008B7F813021F4D3
:1048A0008091F10080931E028091E8008B7753C0C5
:1048B00080913402813A09F052C08091380290917F
:1048C0003902892B09F04BC08091E800877F8093E3
:1048D000E8008091E80080FFFCCF8091140136C091
:1048E000809134028132D9F5809138029091390259
:1048F000892BA9F58091E800877F8093E8000E94CA
:10490000BD2680913602809314010C941A12809176
:104910003402813221F58091E800877F8093E8009E
:104920000E94BD268091370280931F0208958091D6
:104930003402813AA1F48091E800877F8093E800F7
:104940008091E80080FFFCCF80911F028093F100EE
:104950008091E8008E778093E8000C94BD2608953E
:1049600084B7877F84BF0FB6F894A89580916000C4
:10497000886180936000109260000FBE90E080E834
:104980000FB6F89480936100909361000FBE0E946F
:10499000B40D0E940F270E946C278091E200846072
:1049A0008093E20082E792E20E940D1878940E94C0
:1049B000002A0E94BE0D8AE091E00E94100D87E15E
:1049C0009AE00E94350680913302853089F483E1B4
:1049D0009AE00E9435060E943519809131028823A1
:1049E00091F30E941D19882371F30E946825EBCF73
:1049F0000E94EE0DE8CF0C94FD24292F332723309D
:104A00003105C9F060F42130310581F022303105E3
:104A100009F047C08BE590E020E73AE046C021323C
:104A2000310511F12232310561F13BC082E190E0A4
:104A30002BEC3AE03AC099278130910561F040F0C3
:104A40008230910559F0039761F5ECE3FAE008C074
:104A5000ECE6FAE005C0E8E6FAE002C0E2E4FAE0DB
:104A6000849190E09F0121C063307105D0F4660FFE
:104A7000771FFB01E057FE4F2081318189E090E0F4
:104A800014C06330710568F4FB01EE0FFF1FE65799
:104A9000FE4F20813181FB01E957FE4F808190E07C
:104AA00004C080E090E020E030E0FA013183208310
:104AB000089580913302843011F081E0089582E0FE
:104AC000089580912002811102C00C945925089507
:104AD00080E189BD82E189BD09B400FEFDCF8091EE
:104AE000D8008F7D8093D8008091E0008260809311
:104AF000E0008091E00081FDFCCF0895CF92DF922D
:104B0000EF92FF920F931F93CF93DF93EC018B01F2
:104B10007A010E94DC26811133C0E114F10439F0DE
:104B2000F70180819181081B190BC80FD91FC12C77
:104B3000D12C0115110519F18091E80085FD16C0F1
:104B40008091E8008E778093E800E114F10449F049
:104B5000F70180819181C80ED91ED182C08285E083
:104B60000FC00E94DC26882321F30AC0899180931C
:104B7000F10001501109FFEFCF1ADF0ADACF80E010
:104B8000DF91CF911F910F91FF90EF90DF90CF9029
:104B9000089520913A0230913B022617370748F0DA
:104BA0006115710539F42091E8002E772093E80013
:104BB00001C0B901FC0120E06115710579F1809116
:104BC00033028823F1F18530F1F18091E80083FD13
:104BD0003CC08091E80082FD2EC08091E80080FFFB
:104BE000EBCF2091F3008091F20090E0922B6115C1
:104BF000710551F08830910538F421912093F1002E
:104C0000615071090196F3CF21E0089709F020E087
:104C10008091E8008E778093E800CECF2111CFCF2E
:104C20000AC080913302882361F0853061F0809161
:104C3000E80083FD0AC08091E80082FFF2CF80E0A7
:104C4000089582E0089583E0089581E00895209119
:104C50003A0230913B022617370748F0611571057B
:104C600039F42091E8002E772093E80001C0B901C3
:104C7000FC0120E06115710591F1809133028823D8
:104C800009F440C0853009F43FC08091E80083FDFD
:104C90003DC08091E80082FD2FC08091E80080FF38
:104CA000E9CF2091F3008091F20090E0922B611502
:104CB000710559F08830910540F424912093F1005A
:104CC0003196615071090196F2CF21E0089709F001
:104CD00020E08091E8008E778093E800CBCF21110F
:104CE000CCCF0AC080913302882361F0853061F017
:104CF0008091E80083FD0AC08091E80082FFF2CF36
:104D000080E0089582E0089583E0089581E00895A9
:104D1000982F973068F59093E900981739F07091C3
:104D2000EC002091ED005091F00003C0242F762F6D
:104D300050E021FD02C09F5FECCF3091EB003E7F41
:104D40003093EB003091ED003D7F3093ED003091DA
:104D5000EB0031603093EB007093EC002093ED009A
:104D60005093F0002091EE0027FDE5CF80E00895FC
:104D70008F708093E90081E008958091340287FF6D
:104D800011C08091E80082FD05C08091330281113D
:104D9000F8CF11C08091E8008B770BC0809133026F
:104DA000882349F08091E80080FFF8CF8091E800E7
:104DB0008E778093E80008952091E4003091E5001B
:104DC00095E64091EC00842F817040FF23C08091D4
:104DD000E80080FD1DC080913302882399F0853062
:104DE00099F08091EB0085FD11C04091E400509155
:104DF000E5002417350729F3915011F09A01E1CF0E
:104E000084E0089582E0089583E0089581E00895A4
:104E100080E008954091E80042FFDDCF08950E94B0
:104E20007D270E948527E0EEF0E08081816080830D
:104E3000E8EDF0E080818F77808319BCA7EDB0E0CA
:104E40008C918E7F8C9380818F7E80831092320232
:104E500008950F931F93CF93DF930E947D270E94A5
:104E60008527C8EDD0E088818F7788838881806826
:104E7000888388818F7D888319BC109233021092B9
:104E80002F02109231021092300200EE10E0F80171
:104E900080818B7F808388818160888342E060E0AD
:104EA00080E00E948826E1EEF0E080818E7F8083A2
:104EB000E2EEF0E080818160808380818860808381
:104EC000F80180818E7F8083888180618883DF9173
:104ED000CF911F910F910895E8EDF0E080818F7ED2
:104EE0008083E7EDF0E080818160808384E082BF91
:104EF00081E0809332020C942927E8EDF0E0808174
:104F00008E7F80831092E20008951092DA00109252
:104F1000E10008951F920F920FB60F9211242F9364
:104F20003F934F935F936F937F938F939F93AF9331
:104F3000BF93EF93FF938091E10082FF0BC08091BC
:104F4000E20082FF07C08091E1008B7F8093E10047
:104F50000E94A3238091DA0080FF1FC08091D800B7
:104F600080FF1BC08091DA008E7F8093DA008091F1
:104F7000D90080FF0DC080E189BD82E189BD09B4FF
:104F800000FEFDCF81E0809333020E947C2305C0A8
:104F900019BC109233020E948E238091E10080FFA1
:104FA00019C08091E20080FF15C08091E2008E7FE1
:104FB0008093E2008091E20080618093E200809122
:104FC000D80080628093D80019BC85E080933302BA
:104FD0000E9499238091E10084FF30C08091E2001B
:104FE00084FF2CC080E189BD82E189BD09B400FE47
:104FF000FDCF8091D8008F7D8093D8008091E10013
:105000008F7E8093E1008091E2008F7E8093E200AA
:105010008091E20081608093E20080912F028823DA
:1050200011F084E007C08091E30087FD02C081E0B9
:1050300001C083E0809333020E949D238091E100B0
:1050400083FF29C08091E20083FF25C08091E100A9
:10505000877F8093E10082E08093330210922F02D9
:105060008091E1008E7F8093E1008091E2008E7F4D
:105070008093E2008091E20080618093E20042E050
:1050800060E080E00E9488268091F0008860809334
:10509000F0000E949523FF91EF91BF91AF919F91F6
:1050A0008F917F916F915F914F913F912F910F90D1
:1050B0000FBE0F901F9018951F920F920FB60F9270
:1050C00011242F933F934F935F936F937F938F930D
:1050D0009F93AF93BF93CF93DF93EF93FF93C091D1
:1050E000E900CF708091EC00D82FD17080FDD0E81E
:1050F0001092E9008091F000877F8093F00078940F
:105100000E94A0281092E9008091F00088608093AE
:10511000F000CD2BCF70C093E900FF91EF91DF91AC
:10512000CF91BF91AF919F918F917F916F915F913F
:105130004F913F912F910F900FBE0F901F90189598
:105140001F93CF93DF93CDB7DEB7AA970FB6F8942E
:10515000DEBF0FBECDBFE4E3F2E08091F1008193AA
:1051600022E0EC33F207C9F70E94F3238091E800B4
:1051700083FF2EC18091340290913502492F50E077
:105180004A30510508F024C1FA01E059FF4F0C9450
:105190003B2A803821F0823809F01AC108C080917A
:1051A000300290913102992389F082600FC0809182
:1051B00038028F70873008F00BC18093E90080912E
:1051C000EB0085FB882780F91092E9009091E800B8
:1051D000977F9093E8008093F1001092F100D1C086
:1051E000282F2D7F09F0F4C0882319F0823061F058
:1051F000EFC080913602813009F0EAC0933009F0A7
:1052000080E0809331022EC08091360281112AC045
:10521000809138028F702FEF280F263008F0D8C009
:105220008093E9002091EB0020FF1CC0933021F413
:105230008091EB00806214C09091EB00906190939C
:10524000EB0021E030E0A90102C0440F551F8A9510
:10525000E2F74093EA001092EA008091EB00886048
:105260008093EB001092E9008091E800877F8093A3
:10527000E8000E94BD26ACC08111AAC01091360280
:105280001F778091E3008078812B8093E3008091E9
:10529000E800877F8093E8000E94BD268091E800A7
:1052A00080FFFCCF8091E30080688093E3001111C0
:1052B00002C082E001C083E08093330289C080583D
:1052C000823008F085C080913602909137028C3D83
:1052D00053E0950779F583E08A838AE289834FB7A3
:1052E000F894DE01139620E03EE051E2E32FF0E077
:1052F00050935700E49120FF03C0E295EF703F5FA9
:10530000EF708E2F90E0EA3010F0C79601C0C09683
:105310008D939D932F5F243149F74FBF8091E80013
:10532000877F8093E8006AE270E0CE0101960E94D8
:10533000C92516C06091380270913902AE014F5FE5
:105340005F4F0E94FB24BC01892B09F441C090915E
:10535000E800977F9093E80089819A810E94272630
:105360008091E8008B778093E80032C0803881F527
:105370008091E800877F8093E80080912F028093DE
:10538000F1008091E8008E7772CF811121C0809169
:1053900036029091370299270297D4F48091E80061
:1053A000877F8093E8008091360280932F020E94CD
:1053B000BD2680912F02811106C08091E30087FDF8
:1053C00002C081E001C084E0809333020E94E423A4
:1053D0008091E80083FF0AC08091E800877F809376
:1053E000E8008091EB0080628093EB00AA960FB6F4
:1053F000F894DEBF0FBECDBFDF91CF911F9108950E
:10540000CF93809133028823A1F0C091E900CF703F
:105410009091EC00892F817090FD80E8C82B10924C
:10542000E9008091E80083FD0E94A028CF70C0931E
:10543000E900CF910895991B79E004C0991F961750
:1054400008F0961B881F7A95C9F78095089597FBF9
:10545000072E16F4009407D077FD09D00E94412A48
:1054600007FC05D03EF4909581959F4F0895709567
:1054700061957F4F0895EE0FFF1F0590F491E02D89
:105480000994AA1BBB1B51E107C0AA1FBB1FA6178B
:10549000B70710F0A61BB70B881F991F5A95A9F7DD
:1054A00080959095BC01CD010895F999FECF92BDEC
:1054B00081BDF89A992780B50895A8E1B0E042E04F
:1054C00050E00C94892A262FF999FECF92BD81BD18
:1054D000F89A019700B4021639F01FBA20BD0FB632
:1054E000F894FA9AF99A0FBE08950396272F0E940E
:1054F000642A0E94632A252F0E94642A242F0C9478
:10550000642A0196272F0E94642A0C94632ADC01E6
:10551000CB01FC01F999FECF06C0F2BDE1BDF89ABE
:10552000319600B40D9241505040B8F70895F89468
:02553000FFCFAB
:10553200F6012808641E140A321E6F2249231E2314
:105542001A23082301E200E900EA00B500B600B719
:1055520000CD008301CC008A019201940121022333
:105562000224022502260227022A02B300B4006F97
:105572000070008182833534C6363233E200E9009E
:10558200EA00B500B600B700CD008301CC008A0165
:1055920092019401210223022402250226022702FB
:1055A2002A02B300B4006F007000818283010203FB
:1055B20004050607080900408122800BFF0ADD0A64
:0655C200820A9B0AB40AF4
:00000001FF
